{
  "contractName": "DexPool",
  "abi": [
    {
      "inputs": [
        {
          "internalType": "address",
          "name": "_tokenOfPool",
          "type": "address"
        },
        {
          "internalType": "address",
          "name": "_myContract",
          "type": "address"
        },
        {
          "internalType": "address",
          "name": "_util",
          "type": "address"
        }
      ],
      "stateMutability": "nonpayable",
      "type": "constructor"
    },
    {
      "anonymous": false,
      "inputs": [
        {
          "indexed": false,
          "internalType": "bytes32",
          "name": "requestId",
          "type": "bytes32"
        },
        {
          "indexed": false,
          "internalType": "uint256",
          "name": "curBlock",
          "type": "uint256"
        }
      ],
      "name": "AddLiquidity",
      "type": "event"
    },
    {
      "anonymous": false,
      "inputs": [
        {
          "indexed": true,
          "internalType": "address",
          "name": "owner",
          "type": "address"
        },
        {
          "indexed": true,
          "internalType": "address",
          "name": "spender",
          "type": "address"
        },
        {
          "indexed": false,
          "internalType": "uint256",
          "name": "value",
          "type": "uint256"
        }
      ],
      "name": "Approval",
      "type": "event"
    },
    {
      "anonymous": false,
      "inputs": [
        {
          "indexed": true,
          "internalType": "address",
          "name": "sender",
          "type": "address"
        },
        {
          "indexed": false,
          "internalType": "uint256",
          "name": "amount0",
          "type": "uint256"
        },
        {
          "indexed": false,
          "internalType": "uint256",
          "name": "amount1",
          "type": "uint256"
        }
      ],
      "name": "Mint",
      "type": "event"
    },
    {
      "anonymous": false,
      "inputs": [
        {
          "indexed": true,
          "internalType": "address",
          "name": "previousOwner",
          "type": "address"
        },
        {
          "indexed": true,
          "internalType": "address",
          "name": "newOwner",
          "type": "address"
        }
      ],
      "name": "OwnershipTransferred",
      "type": "event"
    },
    {
      "anonymous": false,
      "inputs": [
        {
          "indexed": false,
          "internalType": "bool",
          "name": "success",
          "type": "bool"
        }
      ],
      "name": "Receive",
      "type": "event"
    },
    {
      "anonymous": false,
      "inputs": [
        {
          "indexed": false,
          "internalType": "bytes32",
          "name": "requestId",
          "type": "bytes32"
        },
        {
          "indexed": false,
          "internalType": "uint256",
          "name": "curBlock",
          "type": "uint256"
        }
      ],
      "name": "SwapDeposit",
      "type": "event"
    },
    {
      "anonymous": false,
      "inputs": [
        {
          "indexed": false,
          "internalType": "address",
          "name": "recipient",
          "type": "address"
        },
        {
          "indexed": false,
          "internalType": "uint256",
          "name": "amount",
          "type": "uint256"
        }
      ],
      "name": "SwapWithdraw",
      "type": "event"
    },
    {
      "anonymous": false,
      "inputs": [
        {
          "indexed": true,
          "internalType": "address",
          "name": "from",
          "type": "address"
        },
        {
          "indexed": true,
          "internalType": "address",
          "name": "to",
          "type": "address"
        },
        {
          "indexed": false,
          "internalType": "uint256",
          "name": "value",
          "type": "uint256"
        }
      ],
      "name": "Transfer",
      "type": "event"
    },
    {
      "anonymous": false,
      "inputs": [
        {
          "indexed": false,
          "internalType": "bytes32",
          "name": "requestId",
          "type": "bytes32"
        },
        {
          "indexed": false,
          "internalType": "bytes32",
          "name": "tx_fromNet2",
          "type": "bytes32"
        }
      ],
      "name": "TxCompleteBothChain",
      "type": "event"
    },
    {
      "inputs": [
        {
          "internalType": "address",
          "name": "",
          "type": "address"
        },
        {
          "internalType": "address",
          "name": "",
          "type": "address"
        }
      ],
      "name": "allowance",
      "outputs": [
        {
          "internalType": "uint256",
          "name": "",
          "type": "uint256"
        }
      ],
      "stateMutability": "view",
      "type": "function",
      "constant": true
    },
    {
      "inputs": [
        {
          "internalType": "address",
          "name": "",
          "type": "address"
        }
      ],
      "name": "balanceOf",
      "outputs": [
        {
          "internalType": "uint256",
          "name": "",
          "type": "uint256"
        }
      ],
      "stateMutability": "view",
      "type": "function",
      "constant": true
    },
    {
      "inputs": [],
      "name": "decimals",
      "outputs": [
        {
          "internalType": "uint8",
          "name": "",
          "type": "uint8"
        }
      ],
      "stateMutability": "view",
      "type": "function",
      "constant": true
    },
    {
      "inputs": [],
      "name": "myContract",
      "outputs": [
        {
          "internalType": "address",
          "name": "",
          "type": "address"
        }
      ],
      "stateMutability": "view",
      "type": "function",
      "constant": true
    },
    {
      "inputs": [],
      "name": "name",
      "outputs": [
        {
          "internalType": "string",
          "name": "",
          "type": "string"
        }
      ],
      "stateMutability": "view",
      "type": "function",
      "constant": true
    },
    {
      "inputs": [],
      "name": "owner",
      "outputs": [
        {
          "internalType": "address",
          "name": "",
          "type": "address"
        }
      ],
      "stateMutability": "view",
      "type": "function",
      "constant": true
    },
    {
      "inputs": [],
      "name": "renounceOwnership",
      "outputs": [],
      "stateMutability": "nonpayable",
      "type": "function"
    },
    {
      "inputs": [],
      "name": "symbol",
      "outputs": [
        {
          "internalType": "string",
          "name": "",
          "type": "string"
        }
      ],
      "stateMutability": "view",
      "type": "function",
      "constant": true
    },
    {
      "inputs": [],
      "name": "test",
      "outputs": [
        {
          "internalType": "uint256",
          "name": "",
          "type": "uint256"
        }
      ],
      "stateMutability": "view",
      "type": "function",
      "constant": true
    },
    {
      "inputs": [],
      "name": "totalSupply",
      "outputs": [
        {
          "internalType": "uint256",
          "name": "",
          "type": "uint256"
        }
      ],
      "stateMutability": "view",
      "type": "function",
      "constant": true
    },
    {
      "inputs": [
        {
          "internalType": "address",
          "name": "newOwner",
          "type": "address"
        }
      ],
      "name": "transferOwnership",
      "outputs": [],
      "stateMutability": "nonpayable",
      "type": "function"
    },
    {
      "inputs": [],
      "name": "util",
      "outputs": [
        {
          "internalType": "address",
          "name": "",
          "type": "address"
        }
      ],
      "stateMutability": "view",
      "type": "function",
      "constant": true
    },
    {
      "inputs": [
        {
          "internalType": "address",
          "name": "luqidityProvider",
          "type": "address"
        },
        {
          "internalType": "uint256",
          "name": "amount",
          "type": "uint256"
        }
      ],
      "name": "_addLiquidity",
      "outputs": [],
      "stateMutability": "nonpayable",
      "type": "function"
    },
    {
      "inputs": [
        {
          "internalType": "uint256",
          "name": "amountNet1",
          "type": "uint256"
        },
        {
          "internalType": "uint256",
          "name": "amountNet2",
          "type": "uint256"
        },
        {
          "internalType": "address",
          "name": "luqidityProviderNet2",
          "type": "address"
        },
        {
          "internalType": "uint256",
          "name": "balancePoolNet2",
          "type": "uint256"
        }
      ],
      "name": "addLiquidity",
      "outputs": [],
      "stateMutability": "nonpayable",
      "type": "function"
    },
    {
      "inputs": [
        {
          "internalType": "uint256",
          "name": "amount1",
          "type": "uint256"
        },
        {
          "internalType": "uint256",
          "name": "amount2",
          "type": "uint256"
        },
        {
          "internalType": "address",
          "name": "recipientOnNet2",
          "type": "address"
        }
      ],
      "name": "swapDeposit",
      "outputs": [],
      "stateMutability": "nonpayable",
      "type": "function"
    },
    {
      "inputs": [
        {
          "internalType": "bytes32",
          "name": "requestId",
          "type": "bytes32"
        },
        {
          "internalType": "bytes32",
          "name": "tx_fromNet2",
          "type": "bytes32"
        }
      ],
      "name": "setPendingRequestsDone",
      "outputs": [],
      "stateMutability": "nonpayable",
      "type": "function"
    },
    {
      "inputs": [
        {
          "internalType": "address",
          "name": "recipient",
          "type": "address"
        },
        {
          "internalType": "uint256",
          "name": "amount",
          "type": "uint256"
        }
      ],
      "name": "swapWithdraw",
      "outputs": [],
      "stateMutability": "nonpayable",
      "type": "function"
    },
    {
      "inputs": [
        {
          "internalType": "uint256",
          "name": "amount0",
          "type": "uint256"
        },
        {
          "internalType": "uint256",
          "name": "amount1",
          "type": "uint256"
        },
        {
          "internalType": "uint256",
          "name": "balancePoolNet2",
          "type": "uint256"
        }
      ],
      "name": "calculateLP",
      "outputs": [
        {
          "internalType": "uint256",
          "name": "liquidity",
          "type": "uint256"
        }
      ],
      "stateMutability": "view",
      "type": "function",
      "constant": true
    },
    {
      "inputs": [
        {
          "internalType": "uint256",
          "name": "val",
          "type": "uint256"
        }
      ],
      "name": "_setTest",
      "outputs": [],
      "stateMutability": "nonpayable",
      "type": "function"
    },
    {
      "inputs": [],
      "name": "_getTest",
      "outputs": [
        {
          "internalType": "uint256",
          "name": "",
          "type": "uint256"
        }
      ],
      "stateMutability": "view",
      "type": "function",
      "constant": true
    },
    {
      "inputs": [
        {
          "internalType": "bytes",
          "name": "b",
          "type": "bytes"
        }
      ],
      "name": "lowLevelGet",
      "outputs": [
        {
          "internalType": "bytes32",
          "name": "",
          "type": "bytes32"
        }
      ],
      "stateMutability": "view",
      "type": "function",
      "constant": true
    },
    {
      "inputs": [
        {
          "internalType": "address",
          "name": "adr",
          "type": "address"
        }
      ],
      "name": "setSecondPool",
      "outputs": [],
      "stateMutability": "nonpayable",
      "type": "function"
    }
  ],
  "bytecode": "0x608060405234801561001057600080fd5b5060405161206e38038061206e8339818101604052606081101561003357600080fd5b508051602082015160409092015190919060006100576001600160e01b036100e716565b600380546001600160a01b0319166001600160a01b038316908117909155604051919250906000907f8be0079c531659141344cd1fd0a4f28419497f9722a3daafe3b4186f6b6457e0908290a350600980546001600160a01b039485166001600160a01b0319918216179091556005805493851693821693909317909255600680549190931691161790556100eb565b3390565b611f74806100fa6000396000f3fe608060405234801561001057600080fd5b50600436106101425760003560e01c806370a08231116100b8578063bc33657a1161007c578063bc33657a14610416578063d92099841461041e578063dd62ed3e1461044a578063f2fde38b14610478578063f8a8fd6d1461049e578063fec10280146104a657610142565b806370a08231146103b4578063715018a6146103da5780638da5cb5b146103e2578063956138751461040657806395d89b411461040e57610142565b8063313ce5671161010a578063313ce567146102e157806349eba8f7146102ff57806350842bd01461030757806355ee964e14610333578063578b107b1461035c57806360477a881461038257610142565b806301d74a551461014757806306fdde031461018157806311038e46146101fe57806318160ddd146102b65780633098b954146102be575b600080fd5b61017f6004803603608081101561015d57600080fd5b508035906020810135906001600160a01b0360408201351690606001356104c3565b005b610189610a57565b6040805160208082528351818301528351919283929083019185019080838360005b838110156101c35781810151838201526020016101ab565b50505050905090810190601f1680156101f05780820380516001836020036101000a031916815260200191505b509250505060405180910390f35b6102a46004803603602081101561021457600080fd5b81019060208101813564010000000081111561022f57600080fd5b82018360208201111561024157600080fd5b8035906020019184600183028401116401000000008311171561026357600080fd5b91908080601f016020809104026020016040519081016040528093929190818152602001838380828437600092019190915250929550610a78945050505050565b60408051918252519081900360200190f35b6102a4610b5e565b61017f600480360360408110156102d457600080fd5b5080359060200135610b64565b6102e9610c49565b6040805160ff9092168252519081900360200190f35b6102a4610c4e565b61017f6004803603604081101561031d57600080fd5b506001600160a01b038135169060200135610ca5565b6102a46004803603606081101561034957600080fd5b5080359060208101359060400135610dc8565b61017f6004803603602081101561037257600080fd5b50356001600160a01b0316610f4f565b61017f6004803603606081101561039857600080fd5b50803590602081013590604001356001600160a01b0316610fdb565b6102a4600480360360208110156103ca57600080fd5b50356001600160a01b0316611548565b61017f61155a565b6103ea61160e565b604080516001600160a01b039092168252519081900360200190f35b6103ea61161d565b61018961162c565b6103ea61164b565b61017f6004803603604081101561043457600080fd5b506001600160a01b03813516906020013561165a565b6102a46004803603604081101561046057600080fd5b506001600160a01b038135811691602001351661181b565b61017f6004803603602081101561048e57600080fd5b50356001600160a01b0316611838565b6102a4611943565b61017f600480360360208110156104bc57600080fd5b5035611949565b6001600160a01b03821661050d576040805162461bcd60e51b815260206004820152600c60248201526b4e554c4c204144445245535360a01b604482015290519081900360640190fd5b6007546001600160a01b0316610558576040805162461bcd60e51b815260206004820152600b60248201526a424144204144445245535360a81b604482015290519081900360640190fd5b600954604080516323b872dd60e01b81523360048201523060248201526044810187905290516001600160a01b03909216916323b872dd916064808201926020929091908290030181600087803b1580156105b257600080fd5b505af11580156105c6573d6000803e3d6000fd5b505050506040513d60208110156105dc57600080fd5b5050604080518082018252601e81527f5f6164644c697175696469747928616464726573732c75696e7432353629000060209182015281516001600160a01b0380861660248084019190915260448084018990528551808503820181526064909401865283850180516001600160e01b031663050842bd60e41b17815260055487518089018952600a8152691cd95d14995c5d595cdd60b21b818901526006549851633ea9061160e11b8152600481019889528751958101959095528651969860009892871697631503aef99792969190921694637d520c22948b94938493909201918083838e5b838110156106dc5781810151838201526020016106c4565b50505050905090810190601f1680156107095780820380516001836020036101000a031916815260200191505b509250505060006040518083038186803b15801561072657600080fd5b505afa15801561073a573d6000803e3d6000fd5b505050506040513d6000823e601f3d908101601f19168201604052602081101561076357600080fd5b810190808051604051939291908464010000000082111561078357600080fd5b90830190602082018581111561079857600080fd5b82516401000000008111828201881017156107b257600080fd5b82525081516020918201929091019080838360005b838110156107df5781810151838201526020016107c7565b50505050905090810190601f16801561080c5780820380516001836020036101000a031916815260200191505b50604052505060075461082891506001600160a01b031661199b565b6040518463ffffffff1660e01b815260040180806020018060200180602001848103845287818151815260200191508051906020019080838360005b8381101561087c578181015183820152602001610864565b50505050905090810190601f1680156108a95780820380516001836020036101000a031916815260200191505b50848103835286518152865160209182019188019080838360005b838110156108dc5781810151838201526020016108c4565b50505050905090810190601f1680156109095780820380516001836020036101000a031916815260200191505b50848103825285518152855160209182019187019080838360005b8381101561093c578181015183820152602001610924565b50505050905090810190601f1680156109695780820380516001836020036101000a031916815260200191505b509650505050505050602060405180830381600087803b15801561098c57600080fd5b505af11580156109a0573d6000803e3d6000fd5b505050506040513d60208110156109b657600080fd5b505160008181526008602090815260409182902080546001600160a01b03191633178155600181018a905560028101899055600381018790556203078360ec1b60048201556b6164644c697175696469747960a01b6005820155825184815243928101929092528251939450927fd29686626e0fa84b4c56eccda422e2b6cb56e8ed5e7d0688ddfaaa9ff0067358929181900390910190a150505050505050565b60405180604001604052806005815260200164446967695560d81b81525081565b6000806060306001600160a01b0316846040518082805190602001908083835b60208310610ab75780518252601f199092019160209182019101610a98565b6001836020036101000a038019825116818451168082178552505050505050905001915050600060405180830381855afa9150503d8060008114610b17576040519150601f19603f3d011682016040523d82523d6000602084013e610b1c565b606091505b5091509150811580610b2d57508051155b15610b3d57600092505050610b59565b808060200190516020811015610b5257600080fd5b5051925050505b919050565b60005481565b6005546001600160a01b03163314610bb1576040805162461bcd60e51b815260206004820152601d6024820152600080516020611f1f833981519152604482015290519081900360640190fd5b60008281526008602052604090206004810182905560058101546b6164644c697175696469747960a01b1415610c09578054600182015460028301546003840154610c07936001600160a01b0316929190611a8f565b505b604080518481526020810184905281517f740b289fa0ffa3e3808a813571dbb7dc63be083427b360ed6e7b834d76d8b364929181900390910190a1505050565b601281565b6005546000906001600160a01b03163314610c9e576040805162461bcd60e51b815260206004820152601d6024820152600080516020611f1f833981519152604482015290519081900360640190fd5b5060045490565b6005546001600160a01b03163314610cf2576040805162461bcd60e51b815260206004820152601d6024820152600080516020611f1f833981519152604482015290519081900360640190fd5b6001600160a01b038216610d3c576040805162461bcd60e51b815260206004820152600c60248201526b4e554c4c204144445245535360a01b604482015290519081900360640190fd5b600954604080516323b872dd60e01b81526001600160a01b03858116600483015230602483015260448201859052915191909216916323b872dd9160648083019260209291908290030181600087803b158015610d9857600080fd5b505af1158015610dac573d6000803e3d6000fd5b505050506040513d6020811015610dc257600080fd5b50505050565b600954604080516370a0823160e01b8152306004820152905160009283926001600160a01b03909116916370a0823191602480820192602092909190829003018186803b158015610e1857600080fd5b505afa158015610e2c573d6000803e3d6000fd5b505050506040513d6020811015610e4257600080fd5b5051600954604080516370a0823160e01b81523060048201529051929350859260009289926001600160a01b03909116916370a0823191602480820192602092909190829003018186803b158015610e9957600080fd5b505afa158015610ead573d6000803e3d6000fd5b505050506040513d6020811015610ec357600080fd5b5051600054910191508587019080610f0657610eff6103e8610ef3610eee8c8c63ffffffff611c7116565b611cda565b9063ffffffff611d2b16565b9550610f43565b610f4085610f1a8b8463ffffffff611c7116565b81610f2157fe5b0485610f338b8563ffffffff611c7116565b81610f3a57fe5b04611d7b565b95505b50505050509392505050565b610f57611d93565b6003546001600160a01b03908116911614610fb9576040805162461bcd60e51b815260206004820181905260248201527f4f776e61626c653a2063616c6c6572206973206e6f7420746865206f776e6572604482015290519081900360640190fd5b600780546001600160a01b0319166001600160a01b0392909216919091179055565b6001600160a01b038116611025576040805162461bcd60e51b815260206004820152600c60248201526b4e554c4c204144445245535360a01b604482015290519081900360640190fd5b6007546001600160a01b0316611070576040805162461bcd60e51b815260206004820152600b60248201526a424144204144445245535360a81b604482015290519081900360640190fd5b600954604080516323b872dd60e01b81523360048201523060248201526044810186905290516001600160a01b03909216916323b872dd916064808201926020929091908290030181600087803b1580156110ca57600080fd5b505af11580156110de573d6000803e3d6000fd5b505050506040513d60208110156110f457600080fd5b5050604080518082018252601d81527f73776170576974686472617728616464726573732c75696e743235362900000060209182015281516001600160a01b0380851660248084019190915260448084018890528551808503820181526064909401865283850180516001600160e01b0316633648266160e21b17815260055487518089018952600a8152691cd95d14995c5d595cdd60b21b818901526006549851633ea9061160e11b8152600481019889528751958101959095528651969860009892871697631503aef99792969190921694637d520c22948b94938493909201918083838e5b838110156111f45781810151838201526020016111dc565b50505050905090810190601f1680156112215780820380516001836020036101000a031916815260200191505b509250505060006040518083038186803b15801561123e57600080fd5b505afa158015611252573d6000803e3d6000fd5b505050506040513d6000823e601f3d908101601f19168201604052602081101561127b57600080fd5b810190808051604051939291908464010000000082111561129b57600080fd5b9083019060208201858111156112b057600080fd5b82516401000000008111828201881017156112ca57600080fd5b82525081516020918201929091019080838360005b838110156112f75781810151838201526020016112df565b50505050905090810190601f1680156113245780820380516001836020036101000a031916815260200191505b50604052505060075461134091506001600160a01b031661199b565b6040518463ffffffff1660e01b815260040180806020018060200180602001848103845287818151815260200191508051906020019080838360005b8381101561139457818101518382015260200161137c565b50505050905090810190601f1680156113c15780820380516001836020036101000a031916815260200191505b50848103835286518152865160209182019188019080838360005b838110156113f45781810151838201526020016113dc565b50505050905090810190601f1680156114215780820380516001836020036101000a031916815260200191505b50848103825285518152855160209182019187019080838360005b8381101561145457818101518382015260200161143c565b50505050905090810190601f1680156114815780820380516001836020036101000a031916815260200191505b509650505050505050602060405180830381600087803b1580156114a457600080fd5b505af11580156114b8573d6000803e3d6000fd5b505050506040513d60208110156114ce57600080fd5b50516000818152600860209081526040918290206203078360ec1b60048201556a1cddd85c11195c1bdcda5d60aa1b6005820155825184815243928101929092528251939450927fb1b2b63a76b38c6a6cd31f51715af205031ee4ca6afa123a87f22e103675218a929181900390910190a1505050505050565b60016020526000908152604090205481565b611562611d93565b6003546001600160a01b039081169116146115c4576040805162461bcd60e51b815260206004820181905260248201527f4f776e61626c653a2063616c6c6572206973206e6f7420746865206f776e6572604482015290519081900360640190fd5b6003546040516000916001600160a01b0316907f8be0079c531659141344cd1fd0a4f28419497f9722a3daafe3b4186f6b6457e0908390a3600380546001600160a01b0319169055565b6003546001600160a01b031690565b6006546001600160a01b031681565b6040518060400160405280600381526020016244475560e81b81525081565b6005546001600160a01b031681565b600954604080516370a0823160e01b8152306004820152905183926001600160a01b0316916370a08231916024808301926020929190829003018186803b1580156116a457600080fd5b505afa1580156116b8573d6000803e3d6000fd5b505050506040513d60208110156116ce57600080fd5b5051101561170d5760405162461bcd60e51b8152600401808060200182810382526023815260200180611eae6023913960400191505060405180910390fd5b6005546001600160a01b0316331461175a576040805162461bcd60e51b815260206004820152601d6024820152600080516020611f1f833981519152604482015290519081900360640190fd5b6009546040805163a9059cbb60e01b81526001600160a01b038581166004830152602482018590529151919092169163a9059cbb9160448083019260209291908290030181600087803b1580156117b057600080fd5b505af11580156117c4573d6000803e3d6000fd5b505050506040513d60208110156117da57600080fd5b5050604080513381526020810183905281517f144b92d506514ad735da4651fee6aeb598d9eb2a83c4072689216d05a3bd6b66929181900390910190a15050565b600260209081526000928352604080842090915290825290205481565b611840611d93565b6003546001600160a01b039081169116146118a2576040805162461bcd60e51b815260206004820181905260248201527f4f776e61626c653a2063616c6c6572206973206e6f7420746865206f776e6572604482015290519081900360640190fd5b6001600160a01b0381166118e75760405162461bcd60e51b8152600401808060200182810382526026815260200180611ed16026913960400191505060405180910390fd5b6003546040516001600160a01b038084169216907f8be0079c531659141344cd1fd0a4f28419497f9722a3daafe3b4186f6b6457e090600090a3600380546001600160a01b0319166001600160a01b0392909216919091179055565b60045481565b6005546001600160a01b03163314611996576040805162461bcd60e51b815260206004820152601d6024820152600080516020611f1f833981519152604482015290519081900360640190fd5b600455565b604080516028808252606082810190935282919060208201818036833701905050905060005b6014811015611a885760008160130360080260020a856001600160a01b0316816119e757fe5b0460f81b9050600060108260f81c60ff16816119ff57fe5b0460f81b905060008160f81c6010028360f81c0360f81b9050611a2182611d97565b858560020281518110611a3057fe5b60200101906001600160f81b031916908160001a905350611a5081611d97565b858560020260010181518110611a6257fe5b60200101906001600160f81b031916908160001a90535050600190920191506119c19050565b5092915050565b600954604080516370a0823160e01b81523060048201529051600092839287926001600160a01b03909216916370a0823191602480820192602092909190829003018186803b158015611ae157600080fd5b505afa158015611af5573d6000803e3d6000fd5b505050506040513d6020811015611b0b57600080fd5b5051600954604080516370a0823160e01b8152306004820152905193909203935085926000926001600160a01b03909216916370a08231916024808301926020929190829003018186803b158015611b6257600080fd5b505afa158015611b76573d6000803e3d6000fd5b505050506040513d6020811015611b8c57600080fd5b50516000549091508587019080611bca57611bb66103e8610ef3610eee8c8c63ffffffff611c7116565b9550611bc560006103e8611dc8565b611be1565b611bde85610f1a8b8463ffffffff611c7116565b95505b60008611611c205760405162461bcd60e51b8152600401808060200182810382526028815260200180611ef76028913960400191505060405180910390fd5b611c2a8a87611dc8565b604080518a8152602081018a9052815133927f4c209b5fc8ad50758f13e2e1088ba56a560dff690a1c6fef26394f4c03821c4f928290030190a25050505050949350505050565b6000811580611c8c57505080820282828281611c8957fe5b04145b611cd4576040805162461bcd60e51b815260206004820152601460248201527364732d6d6174682d6d756c2d6f766572666c6f7760601b604482015290519081900360640190fd5b92915050565b60006003821115611d1d575080600160028204015b81811015611d1757809150600281828581611d0657fe5b040181611d0f57fe5b049050611cef565b50610b59565b8115610b5957506001919050565b80820382811115611cd4576040805162461bcd60e51b815260206004820152601560248201527464732d6d6174682d7375622d756e646572666c6f7760581b604482015290519081900360640190fd5b6000818310611d8a5781611d8c565b825b9392505050565b3390565b6000600a60f883901c1015611db7578160f81c60300160f81b9050610b59565b8160f81c60570160f81b9050610b59565b600054611ddb908263ffffffff611e5e16565b60009081556001600160a01b038316815260016020526040902054611e06908263ffffffff611e5e16565b6001600160a01b03831660008181526001602090815260408083209490945583518581529351929391927fddf252ad1be2c89b69c2b068fc378daa952ba7f163c4a11628f55a4df523b3ef9281900390910190a35050565b80820182811015611cd4576040805162461bcd60e51b815260206004820152601460248201527364732d6d6174682d6164642d6f766572666c6f7760601b604482015290519081900360640190fdfe494e53554646494349454e5420414d4f554e5420494e205357415057495448445241574f776e61626c653a206e6577206f776e657220697320746865207a65726f2061646472657373556e697377617056323a20494e53554646494349454e545f4c49515549444954595f4d494e5445444f4e4c59204345525441494e20434841494e4c494e4b20434c49454e54000000a26469706673582212202752c60b380d665b68e1295936add9f661bda84d978abf700681e4eba2cf38b964736f6c63430006090033",
  "immutableReferences": {},
  "source": "pragma solidity >=0.4.21 < 0.7.0;\n\nimport \"@openzeppelin/contracts/access/Ownable.sol\";\nimport \"@openzeppelin/contracts/cryptography/ECDSA.sol\";\nimport \"@openzeppelin/contracts/token/ERC20/IERC20.sol\";\nimport \"./MyContract.sol\";\nimport \"./IHexstring.sol\";\nimport \"./GovernanceToken.sol\";\nimport './libraries/Math.sol';\nimport \"./libraries/Other.sol\";\n\nabstract contract ERC20 is IERC20 {}\n\n\ncontract DexPool is GovernanceToken, Ownable {\n\n  event Receive(bool success);\n  event SwapDeposit(bytes32 requestId, uint256 curBlock);\n  event SwapWithdraw(address recipient, uint256 amount);\n  event TxCompleteBothChain(bytes32 requestId, bytes32 tx_fromNet2);\n  event AddLiquidity(bytes32 requestId, uint256 curBlock);\n  event Mint(address indexed sender, uint amount0, uint amount1);\n\n  struct SimpleState {\n    address recepient;\n    uint256 amount1;\n    uint256 amount2;\n    uint256 balancePool2;\n    bytes32 tx;\n    bytes32 func;\n  }\n\n  string constant private SET_REQUEST_TYPE = \"setRequest\";\n  string constant private GET_REQUEST_TYPE = \"get\";\n  uint   constant private MINIMUM_LIQUIDITY = 10**3;\n\n  uint256 public test;\n  address public myContract;\n  address public util;\n  address private secondPartPool; \n\n  // requestId => tx (callback, where tx.status === true)\n  mapping(bytes32 => SimpleState) private pendingRequests;\n\n  address tokenOfPool;\n\n  constructor(address _tokenOfPool,\n              address _myContract,\n              address _util ) \n  public {\n\n    tokenOfPool = _tokenOfPool;\n    myContract  = _myContract;\n    util        = _util;\n\n  }\n\n\nfunction _addLiquidity(address luqidityProvider, uint256 amount) public {\n     require(msg.sender == myContract, \"ONLY CERTAIN CHAINLINK CLIENT\");\n     require(luqidityProvider != address(0), \"NULL ADDRESS\");\n\n     IERC20(tokenOfPool).transferFrom(luqidityProvider, address(this), amount);\n     \n}\n\nfunction addLiquidity(uint256 amountNet1,\n                      uint256 amountNet2,\n                      address luqidityProviderNet2,\n                      uint256 balancePoolNet2\n ) external {\n\n  require(luqidityProviderNet2 != address(0), \"NULL ADDRESS\");\n  require(secondPartPool != address(0), \"BAD ADDRESS\");\n  //TODO WARN how does check the balance senderNet2 ?\n  //TODO? invoke only bsc\n  \n  IERC20(tokenOfPool).transferFrom(msg.sender, address(this), amountNet1);\n  bytes memory out  = abi.encodeWithSelector(bytes4(keccak256(bytes('_addLiquidity(address,uint256)'))), luqidityProviderNet2, amountNet2);\n  bytes32 requestId = MyContract(myContract).transmitRequest(SET_REQUEST_TYPE, IHexstring(util).bytesToHexString(out), Other.toAsciiString(secondPartPool));\n\n  SimpleState storage simpleState = pendingRequests[requestId];\n  simpleState.recepient    = msg.sender;\n  simpleState.amount1      = amountNet1;\n  simpleState.amount2      = amountNet2;\n  simpleState.balancePool2 = balancePoolNet2;\n  simpleState.tx           = \"0x0\";\n  simpleState.func         = \"addLiquidity\";\n  //TODO mint LP token after executing tx on net1 and net2 (balancePoolNet1 + balancePoolNet2)\n  //mint(msg.sender, amountNet1, amountNet2, balancePoolNet2);\n\n  emit AddLiquidity(requestId, block.number);\n}\n\n\n  /** \n   * The part of process 'swap'\n   */\n  function swapDeposit(uint256 amount1, uint256 amount2, address recipientOnNet2) external {\n\n    require(recipientOnNet2 != address(0), \"NULL ADDRESS\");\n    require(secondPartPool  != address(0), \"BAD ADDRESS\");\n    // usdc(BNB) c  alice      ethereum(Binance)\n    IERC20(tokenOfPool).transferFrom(msg.sender, address(this), amount1);\n\n     //prepare\n     bytes memory out = abi.encodeWithSelector(bytes4(keccak256(bytes('swapWithdraw(address,uint256)'))), recipientOnNet2, amount2);\n     //byte to string and send to Net2\n     bytes32 requestId = MyContract(myContract).transmitRequest(SET_REQUEST_TYPE, IHexstring(util).bytesToHexString(out), Other.toAsciiString(secondPartPool));\n     //save requestId for bind with callback requestId -> this is approve consistaency !!!!\n     \n     SimpleState storage simpleState = pendingRequests[requestId];\n     simpleState.tx           = \"0x0\";\n     simpleState.func         = \"swapDeposit\";\n\n     emit SwapDeposit(requestId, block.number);\n     \n   }\n\n   function setPendingRequestsDone(bytes32 requestId ,bytes32 tx_fromNet2) public {\n\n      require(msg.sender == myContract, \"ONLY CERTAIN CHAINLINK CLIENT\");\n      // transation on overside is executed. tx.status = true\n      //TODO check simpleState is not null\n      SimpleState storage simpleState = pendingRequests[requestId];\n      simpleState.tx = tx_fromNet2;\n\n      if(simpleState.func == bytes32(\"addLiquidity\")) mint(simpleState.recepient, simpleState.amount1, simpleState.amount2, simpleState.balancePool2);\n\n      emit TxCompleteBothChain(requestId, tx_fromNet2);\n  }\n\n  /** \n   * The part of process 'swap'\n   * \n   */\n  function swapWithdraw(address recipient,uint256 amount) public {\n\n      require(IERC20(tokenOfPool).balanceOf(address(this)) >= amount, \"INSUFFICIENT AMOUNT IN SWAPWITHDRAW\");\n      require(msg.sender == myContract, \"ONLY CERTAIN CHAINLINK CLIENT\");\n      // BNB(USDC) c     alice   Binance(Ethereum)\n      IERC20(tokenOfPool).transfer(recipient, amount);\n\n      emit SwapWithdraw(msg.sender, amount);\n\n   }\n\n   function mint(address to, \n                 uint amount0, \n                 uint amount1,\n                 uint balancePoolNet2) private returns (uint liquidity) {\n        //(uint112 _reserve0, uint112 _reserve1,) = getReserves(); // gas savings\n        uint256 _reserve0 = IERC20(tokenOfPool).balanceOf(address(this)) - amount0; //  1     \n        uint256 _reserve1 = balancePoolNet2; //  2      (  )\n        //uint balance0 = IERC20(token0).balanceOf(address(this));\n        uint balance0 = IERC20(tokenOfPool).balanceOf(address(this)); //   (   )\n        //uint balance1 = IERC20(token1).balanceOf(address(this));\n        uint balance1 = balancePoolNet2 + amount1; //  .           ,    \n        //uint amount0 = balance0.sub(_reserve0);\n        //uint amount1 = balance1.sub(_reserve1);\n\n        //bool feeOn = _mintFee(_reserve0, _reserve1);\n        uint _totalSupply = totalSupply; // gas savings, must be defined here since totalSupply can update in _mintFee\n        if (_totalSupply == 0) {\n            liquidity = Math.sqrt(amount0.mul(amount1)).sub(MINIMUM_LIQUIDITY);\n           _mint(address(0), MINIMUM_LIQUIDITY); // permanently lock the first MINIMUM_LIQUIDITY tokens\n        } else {\n            liquidity = Math.min(amount0.mul(_totalSupply) / _reserve0, amount1.mul(_totalSupply) / _reserve1);\n        }\n        require(liquidity > 0, 'UniswapV2: INSUFFICIENT_LIQUIDITY_MINTED');\n        _mint(to, liquidity);\n\n        //_update(balance0, balance1, _reserve0, _reserve1);\n        //if (feeOn) kLast = uint(reserve0).mul(reserve1); // reserve0 and reserve1 are up-to-date\n        emit Mint(msg.sender, amount0, amount1);\n    }\n\n\n    function calculateLP(uint amount0, \n                         uint amount1,\n                         uint balancePoolNet2) external view returns (uint256 liquidity) {\n        \n        uint256 _reserve0 = IERC20(tokenOfPool).balanceOf(address(this));\n        uint256 _reserve1 = balancePoolNet2;\n        \n        uint balance0 = IERC20(tokenOfPool).balanceOf(address(this)) + amount0;\n        uint balance1 = balancePoolNet2 + amount1;\n\n        uint _totalSupply = totalSupply;\n        if (_totalSupply == 0) {\n            liquidity = Math.sqrt(amount0.mul(amount1)).sub(MINIMUM_LIQUIDITY);\n           \n        } else {\n            liquidity = Math.min(amount0.mul(_totalSupply) / _reserve0, amount1.mul(_totalSupply) / _reserve1);\n        }\n    }\n\n\n\n   /*\n    *\n    *  ==========================FOR INCOMING FROM OVER SIDE =======================================\n    */\n\n\n  function _setTest(uint256 val) public  {\n\n    require(msg.sender == myContract, \"ONLY CERTAIN CHAINLINK CLIENT\");\n\n    test = val;\n  }\n  function _getTest() public view returns (uint256)  {\n\n    require(msg.sender == myContract, \"ONLY CERTAIN CHAINLINK CLIENT\");\n\n    return test;\n  }\n\n /**\n  * Receive invoke from other network through external adapter\n  * Staticcall (read state smart-contrat)\n  *\n  * \n  */\n  function lowLevelGet(bytes memory b) public view returns (bytes32) {\n      (bool success, bytes memory data) = address(this).staticcall(b);\n        if (!success || data.length == 0) {\n            return '';\n        }\n      return abi.decode(data, (bytes32));\n  }\n\n  function setSecondPool(address adr) external onlyOwner {\n    secondPartPool = adr;\n  }\n\n\n\n\n\n\n}\n",
  "sourcePath": "/home/syi/src/Digiu.Lab/contracts/DexPool.sol",
  "compiler": {
    "name": "solc",
    "version": "0.6.9+commit.3e3065ac.Linux.g++"
  },
  "schemaVersion": "3.3.3",
  "updatedAt": "2021-03-10T15:57:23.786Z",
  "networkType": "ethereum",
  "devdoc": {
    "methods": {
      "owner()": {
        "details": "Returns the address of the current owner."
      },
      "renounceOwnership()": {
        "details": "Leaves the contract without owner. It will not be possible to call `onlyOwner` functions anymore. Can only be called by the current owner. NOTE: Renouncing ownership will leave the contract without an owner, thereby removing any functionality that is only available to the owner."
      },
      "transferOwnership(address)": {
        "details": "Transfers ownership of the contract to a new account (`newOwner`). Can only be called by the current owner."
      }
    }
  },
  "userdoc": {
    "methods": {
      "lowLevelGet(bytes)": {
        "notice": "Receive invoke from other network through external adapter Staticcall (read state smart-contrat) "
      },
      "swapDeposit(uint256,uint256,address)": {
        "notice": "The part of process 'swap'"
      },
      "swapWithdraw(address,uint256)": {
        "notice": "The part of process 'swap' "
      }
    }
  }
}