{
  "contractName": "DexPool",
  "abi": [
    {
      "inputs": [
        {
          "internalType": "address",
          "name": "_tokenOfPool",
          "type": "address"
        },
        {
          "internalType": "address",
          "name": "_myContract",
          "type": "address"
        },
        {
          "internalType": "address",
          "name": "_util",
          "type": "address"
        }
      ],
      "stateMutability": "nonpayable",
      "type": "constructor"
    },
    {
      "anonymous": false,
      "inputs": [
        {
          "indexed": false,
          "internalType": "bytes32",
          "name": "requestId",
          "type": "bytes32"
        },
        {
          "indexed": false,
          "internalType": "uint256",
          "name": "curBlock",
          "type": "uint256"
        }
      ],
      "name": "AddLiquidity",
      "type": "event"
    },
    {
      "anonymous": false,
      "inputs": [
        {
          "indexed": true,
          "internalType": "address",
          "name": "owner",
          "type": "address"
        },
        {
          "indexed": true,
          "internalType": "address",
          "name": "spender",
          "type": "address"
        },
        {
          "indexed": false,
          "internalType": "uint256",
          "name": "value",
          "type": "uint256"
        }
      ],
      "name": "Approval",
      "type": "event"
    },
    {
      "anonymous": false,
      "inputs": [
        {
          "indexed": true,
          "internalType": "address",
          "name": "sender",
          "type": "address"
        },
        {
          "indexed": false,
          "internalType": "uint256",
          "name": "amount0",
          "type": "uint256"
        },
        {
          "indexed": false,
          "internalType": "uint256",
          "name": "amount1",
          "type": "uint256"
        }
      ],
      "name": "Mint",
      "type": "event"
    },
    {
      "anonymous": false,
      "inputs": [
        {
          "indexed": true,
          "internalType": "address",
          "name": "previousOwner",
          "type": "address"
        },
        {
          "indexed": true,
          "internalType": "address",
          "name": "newOwner",
          "type": "address"
        }
      ],
      "name": "OwnershipTransferred",
      "type": "event"
    },
    {
      "anonymous": false,
      "inputs": [
        {
          "indexed": false,
          "internalType": "bool",
          "name": "success",
          "type": "bool"
        }
      ],
      "name": "Receive",
      "type": "event"
    },
    {
      "anonymous": false,
      "inputs": [
        {
          "indexed": false,
          "internalType": "bytes32",
          "name": "requestId",
          "type": "bytes32"
        },
        {
          "indexed": false,
          "internalType": "uint256",
          "name": "curBlock",
          "type": "uint256"
        }
      ],
      "name": "SwapDeposit",
      "type": "event"
    },
    {
      "anonymous": false,
      "inputs": [
        {
          "indexed": false,
          "internalType": "address",
          "name": "recipient",
          "type": "address"
        },
        {
          "indexed": false,
          "internalType": "uint256",
          "name": "amount",
          "type": "uint256"
        }
      ],
      "name": "SwapWithdraw",
      "type": "event"
    },
    {
      "anonymous": false,
      "inputs": [
        {
          "indexed": true,
          "internalType": "address",
          "name": "from",
          "type": "address"
        },
        {
          "indexed": true,
          "internalType": "address",
          "name": "to",
          "type": "address"
        },
        {
          "indexed": false,
          "internalType": "uint256",
          "name": "value",
          "type": "uint256"
        }
      ],
      "name": "Transfer",
      "type": "event"
    },
    {
      "anonymous": false,
      "inputs": [
        {
          "indexed": false,
          "internalType": "bytes32",
          "name": "requestId",
          "type": "bytes32"
        },
        {
          "indexed": false,
          "internalType": "bytes32",
          "name": "tx_fromNet2",
          "type": "bytes32"
        }
      ],
      "name": "TxCompleteBothChain",
      "type": "event"
    },
    {
      "inputs": [
        {
          "internalType": "address",
          "name": "",
          "type": "address"
        },
        {
          "internalType": "address",
          "name": "",
          "type": "address"
        }
      ],
      "name": "allowance",
      "outputs": [
        {
          "internalType": "uint256",
          "name": "",
          "type": "uint256"
        }
      ],
      "stateMutability": "view",
      "type": "function"
    },
    {
      "inputs": [
        {
          "internalType": "address",
          "name": "",
          "type": "address"
        }
      ],
      "name": "balanceOf",
      "outputs": [
        {
          "internalType": "uint256",
          "name": "",
          "type": "uint256"
        }
      ],
      "stateMutability": "view",
      "type": "function"
    },
    {
      "inputs": [],
      "name": "decimals",
      "outputs": [
        {
          "internalType": "uint8",
          "name": "",
          "type": "uint8"
        }
      ],
      "stateMutability": "view",
      "type": "function"
    },
    {
      "inputs": [],
      "name": "myContract",
      "outputs": [
        {
          "internalType": "address",
          "name": "",
          "type": "address"
        }
      ],
      "stateMutability": "view",
      "type": "function"
    },
    {
      "inputs": [],
      "name": "name",
      "outputs": [
        {
          "internalType": "string",
          "name": "",
          "type": "string"
        }
      ],
      "stateMutability": "view",
      "type": "function"
    },
    {
      "inputs": [],
      "name": "owner",
      "outputs": [
        {
          "internalType": "address",
          "name": "",
          "type": "address"
        }
      ],
      "stateMutability": "view",
      "type": "function"
    },
    {
      "inputs": [],
      "name": "renounceOwnership",
      "outputs": [],
      "stateMutability": "nonpayable",
      "type": "function"
    },
    {
      "inputs": [],
      "name": "symbol",
      "outputs": [
        {
          "internalType": "string",
          "name": "",
          "type": "string"
        }
      ],
      "stateMutability": "view",
      "type": "function"
    },
    {
      "inputs": [],
      "name": "test",
      "outputs": [
        {
          "internalType": "uint256",
          "name": "",
          "type": "uint256"
        }
      ],
      "stateMutability": "view",
      "type": "function"
    },
    {
      "inputs": [],
      "name": "totalSupply",
      "outputs": [
        {
          "internalType": "uint256",
          "name": "",
          "type": "uint256"
        }
      ],
      "stateMutability": "view",
      "type": "function"
    },
    {
      "inputs": [
        {
          "internalType": "address",
          "name": "newOwner",
          "type": "address"
        }
      ],
      "name": "transferOwnership",
      "outputs": [],
      "stateMutability": "nonpayable",
      "type": "function"
    },
    {
      "inputs": [],
      "name": "util",
      "outputs": [
        {
          "internalType": "address",
          "name": "",
          "type": "address"
        }
      ],
      "stateMutability": "view",
      "type": "function"
    },
    {
      "inputs": [
        {
          "internalType": "address",
          "name": "luqidityProvider",
          "type": "address"
        },
        {
          "internalType": "uint256",
          "name": "amount",
          "type": "uint256"
        }
      ],
      "name": "addLiquidityInternal",
      "outputs": [],
      "stateMutability": "nonpayable",
      "type": "function"
    },
    {
      "inputs": [
        {
          "internalType": "uint256",
          "name": "amountNet1",
          "type": "uint256"
        },
        {
          "internalType": "uint256",
          "name": "amountNet2",
          "type": "uint256"
        },
        {
          "internalType": "address",
          "name": "luqidityProviderNet2",
          "type": "address"
        },
        {
          "internalType": "uint256",
          "name": "balancePoolNet2",
          "type": "uint256"
        }
      ],
      "name": "addLiquidity",
      "outputs": [],
      "stateMutability": "nonpayable",
      "type": "function"
    },
    {
      "inputs": [
        {
          "internalType": "uint256",
          "name": "amount1",
          "type": "uint256"
        },
        {
          "internalType": "uint256",
          "name": "amount2",
          "type": "uint256"
        },
        {
          "internalType": "address",
          "name": "recipientOnNet2",
          "type": "address"
        }
      ],
      "name": "swapDeposit",
      "outputs": [],
      "stateMutability": "nonpayable",
      "type": "function"
    },
    {
      "inputs": [
        {
          "internalType": "bytes32",
          "name": "requestId",
          "type": "bytes32"
        },
        {
          "internalType": "bytes32",
          "name": "tx_fromNet2",
          "type": "bytes32"
        }
      ],
      "name": "setPendingRequestsDone",
      "outputs": [],
      "stateMutability": "nonpayable",
      "type": "function"
    },
    {
      "inputs": [
        {
          "internalType": "address",
          "name": "recipient",
          "type": "address"
        },
        {
          "internalType": "uint256",
          "name": "amount",
          "type": "uint256"
        }
      ],
      "name": "swapWithdraw",
      "outputs": [],
      "stateMutability": "nonpayable",
      "type": "function"
    },
    {
      "inputs": [
        {
          "internalType": "uint256",
          "name": "amount0",
          "type": "uint256"
        },
        {
          "internalType": "uint256",
          "name": "amount1",
          "type": "uint256"
        },
        {
          "internalType": "uint256",
          "name": "balancePoolNet2",
          "type": "uint256"
        }
      ],
      "name": "calculateLP",
      "outputs": [
        {
          "internalType": "uint256",
          "name": "liquidity",
          "type": "uint256"
        }
      ],
      "stateMutability": "view",
      "type": "function"
    },
    {
      "inputs": [
        {
          "internalType": "uint256",
          "name": "val",
          "type": "uint256"
        }
      ],
      "name": "_setTest",
      "outputs": [],
      "stateMutability": "nonpayable",
      "type": "function"
    },
    {
      "inputs": [],
      "name": "_getTest",
      "outputs": [
        {
          "internalType": "uint256",
          "name": "",
          "type": "uint256"
        }
      ],
      "stateMutability": "view",
      "type": "function"
    },
    {
      "inputs": [
        {
          "internalType": "bytes",
          "name": "b",
          "type": "bytes"
        }
      ],
      "name": "lowLevelGet",
      "outputs": [
        {
          "internalType": "bytes32",
          "name": "",
          "type": "bytes32"
        }
      ],
      "stateMutability": "view",
      "type": "function"
    },
    {
      "inputs": [
        {
          "internalType": "address",
          "name": "adr",
          "type": "address"
        }
      ],
      "name": "setSecondPool",
      "outputs": [],
      "stateMutability": "nonpayable",
      "type": "function"
    }
  ],
  "bytecode": "0x608060405234801561001057600080fd5b506040516120893803806120898339818101604052606081101561003357600080fd5b508051602082015160409092015190919060006100576001600160e01b036100e716565b600380546001600160a01b0319166001600160a01b038316908117909155604051919250906000907f8be0079c531659141344cd1fd0a4f28419497f9722a3daafe3b4186f6b6457e0908290a350600980546001600160a01b039485166001600160a01b0319918216179091556005805493851693821693909317909255600680549190931691161790556100eb565b3390565b611f8f806100fa6000396000f3fe608060405234801561001057600080fd5b50600436106101425760003560e01c806370a08231116100b8578063bc33657a1161007c578063bc33657a14610416578063d92099841461041e578063dd62ed3e1461044a578063f2fde38b14610478578063f8a8fd6d1461049e578063fec10280146104a657610142565b806370a08231146103b4578063715018a6146103da5780638da5cb5b146103e2578063956138751461040657806395d89b411461040e57610142565b80633098b9541161010a5780633098b954146102ea578063313ce5671461030d57806349eba8f71461032b57806355ee964e14610333578063578b107b1461035c57806360477a881461038257610142565b806301d74a551461014757806306fdde03146101815780630828637a146101fe57806311038e461461022a57806318160ddd146102e2575b600080fd5b61017f6004803603608081101561015d57600080fd5b508035906020810135906001600160a01b0360408201351690606001356104c3565b005b610189610a4d565b6040805160208082528351818301528351919283929083019185019080838360005b838110156101c35781810151838201526020016101ab565b50505050905090810190601f1680156101f05780820380516001836020036101000a031916815260200191505b509250505060405180910390f35b61017f6004803603604081101561021457600080fd5b506001600160a01b038135169060200135610a6e565b6102d06004803603602081101561024057600080fd5b81019060208101813564010000000081111561025b57600080fd5b82018360208201111561026d57600080fd5b8035906020019184600183028401116401000000008311171561028f57600080fd5b91908080601f016020809104026020016040519081016040528093929190818152602001838380828437600092019190915250929550610b91945050505050565b60408051918252519081900360200190f35b6102d0610c77565b61017f6004803603604081101561030057600080fd5b5080359060200135610c7d565b610315610d62565b6040805160ff9092168252519081900360200190f35b6102d0610d67565b6102d06004803603606081101561034957600080fd5b5080359060208101359060400135610dbe565b61017f6004803603602081101561037257600080fd5b50356001600160a01b0316610f45565b61017f6004803603606081101561039857600080fd5b50803590602081013590604001356001600160a01b0316610fd1565b6102d0600480360360208110156103ca57600080fd5b50356001600160a01b031661153e565b61017f611550565b6103ea611604565b604080516001600160a01b039092168252519081900360200190f35b6103ea611613565b610189611622565b6103ea611641565b61017f6004803603604081101561043457600080fd5b506001600160a01b038135169060200135611650565b6102d06004803603604081101561046057600080fd5b506001600160a01b0381358116916020013516611811565b61017f6004803603602081101561048e57600080fd5b50356001600160a01b031661182e565b6102d0611939565b61017f600480360360208110156104bc57600080fd5b503561193f565b6001600160a01b03821661050d576040805162461bcd60e51b815260206004820152600c60248201526b4e554c4c204144445245535360a01b604482015290519081900360640190fd5b6007546001600160a01b0316610558576040805162461bcd60e51b815260206004820152600b60248201526a424144204144445245535360a81b604482015290519081900360640190fd5b600954604080516323b872dd60e01b81523360048201523060248201526044810187905290516001600160a01b03909216916323b872dd916064808201926020929091908290030181600087803b1580156105b257600080fd5b505af11580156105c6573d6000803e3d6000fd5b505050506040513d60208110156105dc57600080fd5b50506040805160608181019092526025808252611ec760208301398051602091820120604080516001600160a01b0380881660248084019190915260448084018b90528451808503820181526064909401855283870180516001600160e01b03166001600160e01b031990971696909617865260055485518087018752600a8152691cd95d14995c5d595cdd60b21b818a01526006549651633ea9061160e11b815260048101998a52865194810194909452855195995060009891851697631503aef99791969190951694637d520c22948b948493910191908083838e5b838110156106d25781810151838201526020016106ba565b50505050905090810190601f1680156106ff5780820380516001836020036101000a031916815260200191505b509250505060006040518083038186803b15801561071c57600080fd5b505afa158015610730573d6000803e3d6000fd5b505050506040513d6000823e601f3d908101601f19168201604052602081101561075957600080fd5b810190808051604051939291908464010000000082111561077957600080fd5b90830190602082018581111561078e57600080fd5b82516401000000008111828201881017156107a857600080fd5b82525081516020918201929091019080838360005b838110156107d55781810151838201526020016107bd565b50505050905090810190601f1680156108025780820380516001836020036101000a031916815260200191505b50604052505060075461081e91506001600160a01b0316611991565b6040518463ffffffff1660e01b815260040180806020018060200180602001848103845287818151815260200191508051906020019080838360005b8381101561087257818101518382015260200161085a565b50505050905090810190601f16801561089f5780820380516001836020036101000a031916815260200191505b50848103835286518152865160209182019188019080838360005b838110156108d25781810151838201526020016108ba565b50505050905090810190601f1680156108ff5780820380516001836020036101000a031916815260200191505b50848103825285518152855160209182019187019080838360005b8381101561093257818101518382015260200161091a565b50505050905090810190601f16801561095f5780820380516001836020036101000a031916815260200191505b509650505050505050602060405180830381600087803b15801561098257600080fd5b505af1158015610996573d6000803e3d6000fd5b505050506040513d60208110156109ac57600080fd5b505160008181526008602090815260409182902080546001600160a01b03191633178155600181018a905560028101899055600381018790556203078360ec1b60048201556b6164644c697175696469747960a01b6005820155825184815243928101929092528251939450927fd29686626e0fa84b4c56eccda422e2b6cb56e8ed5e7d0688ddfaaa9ff0067358929181900390910190a150505050505050565b60405180604001604052806005815260200164446967695560d81b81525081565b6005546001600160a01b03163314610abb576040805162461bcd60e51b815260206004820152601d6024820152600080516020611f3a833981519152604482015290519081900360640190fd5b6001600160a01b038216610b05576040805162461bcd60e51b815260206004820152600c60248201526b4e554c4c204144445245535360a01b604482015290519081900360640190fd5b600954604080516323b872dd60e01b81526001600160a01b03858116600483015230602483015260448201859052915191909216916323b872dd9160648083019260209291908290030181600087803b158015610b6157600080fd5b505af1158015610b75573d6000803e3d6000fd5b505050506040513d6020811015610b8b57600080fd5b50505050565b6000806060306001600160a01b0316846040518082805190602001908083835b60208310610bd05780518252601f199092019160209182019101610bb1565b6001836020036101000a038019825116818451168082178552505050505050905001915050600060405180830381855afa9150503d8060008114610c30576040519150601f19603f3d011682016040523d82523d6000602084013e610c35565b606091505b5091509150811580610c4657508051155b15610c5657600092505050610c72565b808060200190516020811015610c6b57600080fd5b5051925050505b919050565b60005481565b6005546001600160a01b03163314610cca576040805162461bcd60e51b815260206004820152601d6024820152600080516020611f3a833981519152604482015290519081900360640190fd5b60008281526008602052604090206004810182905560058101546b6164644c697175696469747960a01b1415610d22578054600182015460028301546003840154610d20936001600160a01b0316929190611a85565b505b604080518481526020810184905281517f740b289fa0ffa3e3808a813571dbb7dc63be083427b360ed6e7b834d76d8b364929181900390910190a1505050565b601281565b6005546000906001600160a01b03163314610db7576040805162461bcd60e51b815260206004820152601d6024820152600080516020611f3a833981519152604482015290519081900360640190fd5b5060045490565b600954604080516370a0823160e01b8152306004820152905160009283926001600160a01b03909116916370a0823191602480820192602092909190829003018186803b158015610e0e57600080fd5b505afa158015610e22573d6000803e3d6000fd5b505050506040513d6020811015610e3857600080fd5b5051600954604080516370a0823160e01b81523060048201529051929350859260009289926001600160a01b03909116916370a0823191602480820192602092909190829003018186803b158015610e8f57600080fd5b505afa158015610ea3573d6000803e3d6000fd5b505050506040513d6020811015610eb957600080fd5b5051600054910191508587019080610efc57610ef56103e8610ee9610ee48c8c63ffffffff611c6716565b611cd0565b9063ffffffff611d2116565b9550610f39565b610f3685610f108b8463ffffffff611c6716565b81610f1757fe5b0485610f298b8563ffffffff611c6716565b81610f3057fe5b04611d71565b95505b50505050509392505050565b610f4d611d89565b6003546001600160a01b03908116911614610faf576040805162461bcd60e51b815260206004820181905260248201527f4f776e61626c653a2063616c6c6572206973206e6f7420746865206f776e6572604482015290519081900360640190fd5b600780546001600160a01b0319166001600160a01b0392909216919091179055565b6001600160a01b03811661101b576040805162461bcd60e51b815260206004820152600c60248201526b4e554c4c204144445245535360a01b604482015290519081900360640190fd5b6007546001600160a01b0316611066576040805162461bcd60e51b815260206004820152600b60248201526a424144204144445245535360a81b604482015290519081900360640190fd5b600954604080516323b872dd60e01b81523360048201523060248201526044810186905290516001600160a01b03909216916323b872dd916064808201926020929091908290030181600087803b1580156110c057600080fd5b505af11580156110d4573d6000803e3d6000fd5b505050506040513d60208110156110ea57600080fd5b5050604080518082018252601d81527f73776170576974686472617728616464726573732c75696e743235362900000060209182015281516001600160a01b0380851660248084019190915260448084018890528551808503820181526064909401865283850180516001600160e01b0316633648266160e21b17815260055487518089018952600a8152691cd95d14995c5d595cdd60b21b818901526006549851633ea9061160e11b8152600481019889528751958101959095528651969860009892871697631503aef99792969190921694637d520c22948b94938493909201918083838e5b838110156111ea5781810151838201526020016111d2565b50505050905090810190601f1680156112175780820380516001836020036101000a031916815260200191505b509250505060006040518083038186803b15801561123457600080fd5b505afa158015611248573d6000803e3d6000fd5b505050506040513d6000823e601f3d908101601f19168201604052602081101561127157600080fd5b810190808051604051939291908464010000000082111561129157600080fd5b9083019060208201858111156112a657600080fd5b82516401000000008111828201881017156112c057600080fd5b82525081516020918201929091019080838360005b838110156112ed5781810151838201526020016112d5565b50505050905090810190601f16801561131a5780820380516001836020036101000a031916815260200191505b50604052505060075461133691506001600160a01b0316611991565b6040518463ffffffff1660e01b815260040180806020018060200180602001848103845287818151815260200191508051906020019080838360005b8381101561138a578181015183820152602001611372565b50505050905090810190601f1680156113b75780820380516001836020036101000a031916815260200191505b50848103835286518152865160209182019188019080838360005b838110156113ea5781810151838201526020016113d2565b50505050905090810190601f1680156114175780820380516001836020036101000a031916815260200191505b50848103825285518152855160209182019187019080838360005b8381101561144a578181015183820152602001611432565b50505050905090810190601f1680156114775780820380516001836020036101000a031916815260200191505b509650505050505050602060405180830381600087803b15801561149a57600080fd5b505af11580156114ae573d6000803e3d6000fd5b505050506040513d60208110156114c457600080fd5b50516000818152600860209081526040918290206203078360ec1b60048201556a1cddd85c11195c1bdcda5d60aa1b6005820155825184815243928101929092528251939450927fb1b2b63a76b38c6a6cd31f51715af205031ee4ca6afa123a87f22e103675218a929181900390910190a1505050505050565b60016020526000908152604090205481565b611558611d89565b6003546001600160a01b039081169116146115ba576040805162461bcd60e51b815260206004820181905260248201527f4f776e61626c653a2063616c6c6572206973206e6f7420746865206f776e6572604482015290519081900360640190fd5b6003546040516000916001600160a01b0316907f8be0079c531659141344cd1fd0a4f28419497f9722a3daafe3b4186f6b6457e0908390a3600380546001600160a01b0319169055565b6003546001600160a01b031690565b6006546001600160a01b031681565b6040518060400160405280600381526020016244475560e81b81525081565b6005546001600160a01b031681565b600954604080516370a0823160e01b8152306004820152905183926001600160a01b0316916370a08231916024808301926020929190829003018186803b15801561169a57600080fd5b505afa1580156116ae573d6000803e3d6000fd5b505050506040513d60208110156116c457600080fd5b505110156117035760405162461bcd60e51b8152600401808060200182810382526023815260200180611ea46023913960400191505060405180910390fd5b6005546001600160a01b03163314611750576040805162461bcd60e51b815260206004820152601d6024820152600080516020611f3a833981519152604482015290519081900360640190fd5b6009546040805163a9059cbb60e01b81526001600160a01b038581166004830152602482018590529151919092169163a9059cbb9160448083019260209291908290030181600087803b1580156117a657600080fd5b505af11580156117ba573d6000803e3d6000fd5b505050506040513d60208110156117d057600080fd5b5050604080513381526020810183905281517f144b92d506514ad735da4651fee6aeb598d9eb2a83c4072689216d05a3bd6b66929181900390910190a15050565b600260209081526000928352604080842090915290825290205481565b611836611d89565b6003546001600160a01b03908116911614611898576040805162461bcd60e51b815260206004820181905260248201527f4f776e61626c653a2063616c6c6572206973206e6f7420746865206f776e6572604482015290519081900360640190fd5b6001600160a01b0381166118dd5760405162461bcd60e51b8152600401808060200182810382526026815260200180611eec6026913960400191505060405180910390fd5b6003546040516001600160a01b038084169216907f8be0079c531659141344cd1fd0a4f28419497f9722a3daafe3b4186f6b6457e090600090a3600380546001600160a01b0319166001600160a01b0392909216919091179055565b60045481565b6005546001600160a01b0316331461198c576040805162461bcd60e51b815260206004820152601d6024820152600080516020611f3a833981519152604482015290519081900360640190fd5b600455565b604080516028808252606082810190935282919060208201818036833701905050905060005b6014811015611a7e5760008160130360080260020a856001600160a01b0316816119dd57fe5b0460f81b9050600060108260f81c60ff16816119f557fe5b0460f81b905060008160f81c6010028360f81c0360f81b9050611a1782611d8d565b858560020281518110611a2657fe5b60200101906001600160f81b031916908160001a905350611a4681611d8d565b858560020260010181518110611a5857fe5b60200101906001600160f81b031916908160001a90535050600190920191506119b79050565b5092915050565b600954604080516370a0823160e01b81523060048201529051600092839287926001600160a01b03909216916370a0823191602480820192602092909190829003018186803b158015611ad757600080fd5b505afa158015611aeb573d6000803e3d6000fd5b505050506040513d6020811015611b0157600080fd5b5051600954604080516370a0823160e01b8152306004820152905193909203935085926000926001600160a01b03909216916370a08231916024808301926020929190829003018186803b158015611b5857600080fd5b505afa158015611b6c573d6000803e3d6000fd5b505050506040513d6020811015611b8257600080fd5b50516000549091508587019080611bc057611bac6103e8610ee9610ee48c8c63ffffffff611c6716565b9550611bbb60006103e8611dbe565b611bd7565b611bd485610f108b8463ffffffff611c6716565b95505b60008611611c165760405162461bcd60e51b8152600401808060200182810382526028815260200180611f126028913960400191505060405180910390fd5b611c208a87611dbe565b604080518a8152602081018a9052815133927f4c209b5fc8ad50758f13e2e1088ba56a560dff690a1c6fef26394f4c03821c4f928290030190a25050505050949350505050565b6000811580611c8257505080820282828281611c7f57fe5b04145b611cca576040805162461bcd60e51b815260206004820152601460248201527364732d6d6174682d6d756c2d6f766572666c6f7760601b604482015290519081900360640190fd5b92915050565b60006003821115611d13575080600160028204015b81811015611d0d57809150600281828581611cfc57fe5b040181611d0557fe5b049050611ce5565b50610c72565b8115610c7257506001919050565b80820382811115611cca576040805162461bcd60e51b815260206004820152601560248201527464732d6d6174682d7375622d756e646572666c6f7760581b604482015290519081900360640190fd5b6000818310611d805781611d82565b825b9392505050565b3390565b6000600a60f883901c1015611dad578160f81c60300160f81b9050610c72565b8160f81c60570160f81b9050610c72565b600054611dd1908263ffffffff611e5416565b60009081556001600160a01b038316815260016020526040902054611dfc908263ffffffff611e5416565b6001600160a01b03831660008181526001602090815260408083209490945583518581529351929391927fddf252ad1be2c89b69c2b068fc378daa952ba7f163c4a11628f55a4df523b3ef9281900390910190a35050565b80820182811015611cca576040805162461bcd60e51b815260206004820152601460248201527364732d6d6174682d6164642d6f766572666c6f7760601b604482015290519081900360640190fdfe494e53554646494349454e5420414d4f554e5420494e205357415057495448445241576164644c6971756964697479496e7465726e616c28616464726573732c75696e74323536294f776e61626c653a206e6577206f776e657220697320746865207a65726f2061646472657373556e697377617056323a20494e53554646494349454e545f4c49515549444954595f4d494e5445444f4e4c59204345525441494e20434841494e4c494e4b20434c49454e54000000a26469706673582212202a9a2d1e1e6e1ddd456d95b8a7e71680e6aee1667341178833a81d0584dc2ec564736f6c63430006090033",
  "immutableReferences": {},
  "source": "pragma solidity >=0.4.21 < 0.7.0;\n\nimport \"@openzeppelin/contracts/access/Ownable.sol\";\nimport \"@openzeppelin/contracts/cryptography/ECDSA.sol\";\nimport \"@openzeppelin/contracts/token/ERC20/IERC20.sol\";\nimport \"./MyContract.sol\";\nimport \"./IHexstring.sol\";\nimport \"./GovernanceToken.sol\";\nimport './libraries/Math.sol';\nimport \"./libraries/Other.sol\";\n\nabstract contract ERC20 is IERC20 {}\n\n\ncontract DexPool is GovernanceToken, Ownable {\n\n  event Receive(bool success);\n  event SwapDeposit(bytes32 requestId, uint256 curBlock);\n  event SwapWithdraw(address recipient, uint256 amount);\n  event TxCompleteBothChain(bytes32 requestId, bytes32 tx_fromNet2);\n  event AddLiquidity(bytes32 requestId, uint256 curBlock);\n  event Mint(address indexed sender, uint amount0, uint amount1);\n\n  struct SimpleState {\n    address recepient;\n    uint256 amount1;\n    uint256 amount2;\n    uint256 balancePool2;\n    bytes32 tx;\n    bytes32 func;\n  }\n\n  string constant private SET_REQUEST_TYPE = \"setRequest\";\n  string constant private GET_REQUEST_TYPE = \"get\";\n  uint   constant private MINIMUM_LIQUIDITY = 10**3;\n\n  uint256 public test;\n  address public myContract;\n  address public util;\n  address private secondPartPool;\n\n  // requestId => tx (callback, where tx.status === true)\n  mapping(bytes32 => SimpleState) private pendingRequests;\n\n  address tokenOfPool;\n\n  constructor(address _tokenOfPool,\n              address _myContract,\n              address _util )\n  public {\n\n    tokenOfPool = _tokenOfPool;\n    myContract  = _myContract;\n    util        = _util;\n\n  }\n\n\nfunction addLiquidityInternal(address luqidityProvider, uint256 amount) public {\n     require(msg.sender == myContract, \"ONLY CERTAIN CHAINLINK CLIENT\");\n     require(luqidityProvider != address(0), \"NULL ADDRESS\");\n\n     IERC20(tokenOfPool).transferFrom(luqidityProvider, address(this), amount);\n\n}\n\nfunction addLiquidity(uint256 amountNet1,\n                      uint256 amountNet2,\n                      address luqidityProviderNet2,\n                      uint256 balancePoolNet2\n ) external {\n\n  require(luqidityProviderNet2 != address(0), \"NULL ADDRESS\");\n  require(secondPartPool != address(0), \"BAD ADDRESS\");\n  //TODO WARN how does check the balance senderNet2 ?\n  //TODO? invoke only bsc\n\n  IERC20(tokenOfPool).transferFrom(msg.sender, address(this), amountNet1);\n  bytes memory out  = abi.encodeWithSelector(bytes4(keccak256(bytes('addLiquidityInternal(address,uint256)'))), luqidityProviderNet2, amountNet2);\n  bytes32 requestId = MyContract(myContract).transmitRequest(SET_REQUEST_TYPE, IHexstring(util).bytesToHexString(out), Other.toAsciiString(secondPartPool));\n\n  SimpleState storage simpleState = pendingRequests[requestId];\n  simpleState.recepient    = msg.sender;\n  simpleState.amount1      = amountNet1;\n  simpleState.amount2      = amountNet2;\n  simpleState.balancePool2 = balancePoolNet2;\n  simpleState.tx           = \"0x0\";\n  simpleState.func         = \"addLiquidity\";\n  //TODO mint LP token after executing tx on net1 and net2 (balancePoolNet1 + balancePoolNet2)\n  //mint(msg.sender, amountNet1, amountNet2, balancePoolNet2);\n\n  emit AddLiquidity(requestId, block.number);\n}\n\n\n  /**\n   * The part of process 'swap'\n   */\n  function swapDeposit(uint256 amount1, uint256 amount2, address recipientOnNet2) external {\n\n    require(recipientOnNet2 != address(0), \"NULL ADDRESS\");\n    require(secondPartPool  != address(0), \"BAD ADDRESS\");\n    // usdc(BNB) c  alice      ethereum(Binance)\n    IERC20(tokenOfPool).transferFrom(msg.sender, address(this), amount1);\n\n     //prepare\n     bytes memory out = abi.encodeWithSelector(bytes4(keccak256(bytes('swapWithdraw(address,uint256)'))), recipientOnNet2, amount2);\n     //byte to string and send to Net2\n     bytes32 requestId = MyContract(myContract).transmitRequest(SET_REQUEST_TYPE, IHexstring(util).bytesToHexString(out), Other.toAsciiString(secondPartPool));\n     //save requestId for bind with callback requestId -> this is approve consistaency !!!!\n\n     SimpleState storage simpleState = pendingRequests[requestId];\n     simpleState.tx           = \"0x0\";\n     simpleState.func         = \"swapDeposit\";\n\n     emit SwapDeposit(requestId, block.number);\n\n   }\n\n   function setPendingRequestsDone(bytes32 requestId ,bytes32 tx_fromNet2) public {\n\n      require(msg.sender == myContract, \"ONLY CERTAIN CHAINLINK CLIENT\");\n      // transation on overside is executed. tx.status = true\n      //TODO check simpleState is not null\n      SimpleState storage simpleState = pendingRequests[requestId];\n      simpleState.tx = tx_fromNet2;\n\n      if(simpleState.func == bytes32(\"addLiquidity\")) mint(simpleState.recepient, simpleState.amount1, simpleState.amount2, simpleState.balancePool2);\n\n      emit TxCompleteBothChain(requestId, tx_fromNet2);\n  }\n\n  /**\n   * The part of process 'swap'\n   *\n   */\n  function swapWithdraw(address recipient,uint256 amount) public {\n\n      require(IERC20(tokenOfPool).balanceOf(address(this)) >= amount, \"INSUFFICIENT AMOUNT IN SWAPWITHDRAW\");\n      require(msg.sender == myContract, \"ONLY CERTAIN CHAINLINK CLIENT\");\n      // BNB(USDC) c     alice   Binance(Ethereum)\n      IERC20(tokenOfPool).transfer(recipient, amount);\n\n      emit SwapWithdraw(msg.sender, amount);\n\n   }\n\n   function mint(address to,\n                 uint amount0,\n                 uint amount1,\n                 uint balancePoolNet2) private returns (uint liquidity) {\n        //(uint112 _reserve0, uint112 _reserve1,) = getReserves(); // gas savings\n        uint256 _reserve0 = IERC20(tokenOfPool).balanceOf(address(this)) - amount0; //  1     \n        uint256 _reserve1 = balancePoolNet2; //  2      (  )\n        //uint balance0 = IERC20(token0).balanceOf(address(this));\n        uint balance0 = IERC20(tokenOfPool).balanceOf(address(this)); //   (   )\n        //uint balance1 = IERC20(token1).balanceOf(address(this));\n        uint balance1 = balancePoolNet2 + amount1; //  .           ,    \n        //uint amount0 = balance0.sub(_reserve0);\n        //uint amount1 = balance1.sub(_reserve1);\n\n        //bool feeOn = _mintFee(_reserve0, _reserve1);\n        uint _totalSupply = totalSupply; // gas savings, must be defined here since totalSupply can update in _mintFee\n        if (_totalSupply == 0) {\n            liquidity = Math.sqrt(amount0.mul(amount1)).sub(MINIMUM_LIQUIDITY);\n           _mint(address(0), MINIMUM_LIQUIDITY); // permanently lock the first MINIMUM_LIQUIDITY tokens\n        } else {\n            liquidity = Math.min(amount0.mul(_totalSupply) / _reserve0, amount1.mul(_totalSupply) / _reserve1);\n        }\n        require(liquidity > 0, 'UniswapV2: INSUFFICIENT_LIQUIDITY_MINTED');\n        _mint(to, liquidity);\n\n        //_update(balance0, balance1, _reserve0, _reserve1);\n        //if (feeOn) kLast = uint(reserve0).mul(reserve1); // reserve0 and reserve1 are up-to-date\n        emit Mint(msg.sender, amount0, amount1);\n    }\n\n\n    function calculateLP(uint amount0,\n                         uint amount1,\n                         uint balancePoolNet2) external view returns (uint256 liquidity) {\n\n        uint256 _reserve0 = IERC20(tokenOfPool).balanceOf(address(this));\n        uint256 _reserve1 = balancePoolNet2;\n\n        uint balance0 = IERC20(tokenOfPool).balanceOf(address(this)) + amount0;\n        uint balance1 = balancePoolNet2 + amount1;\n\n        uint _totalSupply = totalSupply;\n        if (_totalSupply == 0) {\n            liquidity = Math.sqrt(amount0.mul(amount1)).sub(MINIMUM_LIQUIDITY);\n\n        } else {\n            liquidity = Math.min(amount0.mul(_totalSupply) / _reserve0, amount1.mul(_totalSupply) / _reserve1);\n        }\n    }\n\n\n\n   /*\n    *\n    *  ==========================FOR INCOMING FROM OVER SIDE =======================================\n    */\n\n\n  function _setTest(uint256 val) public  {\n\n    require(msg.sender == myContract, \"ONLY CERTAIN CHAINLINK CLIENT\");\n\n    test = val;\n  }\n  function _getTest() public view returns (uint256)  {\n\n    require(msg.sender == myContract, \"ONLY CERTAIN CHAINLINK CLIENT\");\n\n    return test;\n  }\n\n /**\n  * Receive invoke from other network through external adapter\n  * Staticcall (read state smart-contrat)\n  *\n  *\n  */\n  function lowLevelGet(bytes memory b) public view returns (bytes32) {\n      (bool success, bytes memory data) = address(this).staticcall(b);\n        if (!success || data.length == 0) {\n            return '';\n        }\n      return abi.decode(data, (bytes32));\n  }\n\n  function setSecondPool(address adr) external onlyOwner {\n    secondPartPool = adr;\n  }\n\n\n\n\n\n\n}\n",
  "sourcePath": "/home/syi/src/Digiu.Lab/contracts/DexPool.sol",
  "compiler": {
    "name": "solc",
    "version": "0.6.9+commit.3e3065ac.Linux.g++"
  },
  "schemaVersion": "3.3.3",
  "updatedAt": "2021-03-15T19:22:28.323Z",
  "devdoc": {
    "methods": {
      "owner()": {
        "details": "Returns the address of the current owner."
      },
      "renounceOwnership()": {
        "details": "Leaves the contract without owner. It will not be possible to call `onlyOwner` functions anymore. Can only be called by the current owner. NOTE: Renouncing ownership will leave the contract without an owner, thereby removing any functionality that is only available to the owner."
      },
      "transferOwnership(address)": {
        "details": "Transfers ownership of the contract to a new account (`newOwner`). Can only be called by the current owner."
      }
    }
  },
  "userdoc": {
    "methods": {
      "lowLevelGet(bytes)": {
        "notice": "Receive invoke from other network through external adapter Staticcall (read state smart-contrat)"
      },
      "swapDeposit(uint256,uint256,address)": {
        "notice": "The part of process 'swap'"
      },
      "swapWithdraw(address,uint256)": {
        "notice": "The part of process 'swap'"
      }
    }
  }
}