{
  "contractName": "MyContract",
  "abi": [
    {
      "inputs": [
        {
          "internalType": "address",
          "name": "_link",
          "type": "address"
        },
        {
          "internalType": "address",
          "name": "_oracle",
          "type": "address"
        }
      ],
      "stateMutability": "nonpayable",
      "type": "constructor"
    },
    {
      "anonymous": false,
      "inputs": [
        {
          "indexed": true,
          "internalType": "bytes32",
          "name": "id",
          "type": "bytes32"
        }
      ],
      "name": "ChainlinkCancelled",
      "type": "event"
    },
    {
      "anonymous": false,
      "inputs": [
        {
          "indexed": true,
          "internalType": "bytes32",
          "name": "id",
          "type": "bytes32"
        }
      ],
      "name": "ChainlinkFulfilled",
      "type": "event"
    },
    {
      "anonymous": false,
      "inputs": [
        {
          "indexed": true,
          "internalType": "bytes32",
          "name": "id",
          "type": "bytes32"
        }
      ],
      "name": "ChainlinkRequested",
      "type": "event"
    },
    {
      "anonymous": false,
      "inputs": [
        {
          "indexed": true,
          "internalType": "bytes32",
          "name": "specId",
          "type": "bytes32"
        },
        {
          "indexed": false,
          "internalType": "address",
          "name": "requester",
          "type": "address"
        },
        {
          "indexed": false,
          "internalType": "bytes32",
          "name": "requestId",
          "type": "bytes32"
        },
        {
          "indexed": false,
          "internalType": "uint256",
          "name": "payment",
          "type": "uint256"
        },
        {
          "indexed": false,
          "internalType": "address",
          "name": "callbackAddr",
          "type": "address"
        },
        {
          "indexed": false,
          "internalType": "bytes4",
          "name": "callbackFunctionId",
          "type": "bytes4"
        },
        {
          "indexed": false,
          "internalType": "uint256",
          "name": "cancelExpiration",
          "type": "uint256"
        },
        {
          "indexed": false,
          "internalType": "uint256",
          "name": "dataVersion",
          "type": "uint256"
        },
        {
          "indexed": false,
          "internalType": "bytes",
          "name": "data",
          "type": "bytes"
        }
      ],
      "name": "OracleRequest",
      "type": "event"
    },
    {
      "anonymous": false,
      "inputs": [
        {
          "indexed": true,
          "internalType": "address",
          "name": "previousOwner",
          "type": "address"
        },
        {
          "indexed": true,
          "internalType": "address",
          "name": "newOwner",
          "type": "address"
        }
      ],
      "name": "OwnershipTransferred",
      "type": "event"
    },
    {
      "inputs": [],
      "name": "EXPIRY_TIME",
      "outputs": [
        {
          "internalType": "uint256",
          "name": "",
          "type": "uint256"
        }
      ],
      "stateMutability": "view",
      "type": "function"
    },
    {
      "inputs": [],
      "name": "oracle",
      "outputs": [
        {
          "internalType": "address",
          "name": "",
          "type": "address"
        }
      ],
      "stateMutability": "view",
      "type": "function"
    },
    {
      "inputs": [],
      "name": "owner",
      "outputs": [
        {
          "internalType": "address",
          "name": "",
          "type": "address"
        }
      ],
      "stateMutability": "view",
      "type": "function"
    },
    {
      "inputs": [],
      "name": "renounceOwnership",
      "outputs": [],
      "stateMutability": "nonpayable",
      "type": "function"
    },
    {
      "inputs": [
        {
          "internalType": "address",
          "name": "newOwner",
          "type": "address"
        }
      ],
      "name": "transferOwnership",
      "outputs": [],
      "stateMutability": "nonpayable",
      "type": "function"
    },
    {
      "inputs": [
        {
          "internalType": "bytes32",
          "name": "jobId",
          "type": "bytes32"
        }
      ],
      "name": "setPermissionJobId",
      "outputs": [],
      "stateMutability": "nonpayable",
      "type": "function"
    },
    {
      "inputs": [
        {
          "internalType": "address",
          "name": "a",
          "type": "address"
        }
      ],
      "name": "setControl",
      "outputs": [],
      "stateMutability": "nonpayable",
      "type": "function"
    },
    {
      "inputs": [],
      "name": "getPermissionJobId",
      "outputs": [
        {
          "internalType": "bytes32[]",
          "name": "",
          "type": "bytes32[]"
        }
      ],
      "stateMutability": "view",
      "type": "function"
    },
    {
      "inputs": [
        {
          "internalType": "address",
          "name": "val",
          "type": "address"
        }
      ],
      "name": "setOracle",
      "outputs": [],
      "stateMutability": "nonpayable",
      "type": "function"
    },
    {
      "inputs": [],
      "name": "getChainlinkToken",
      "outputs": [
        {
          "internalType": "address",
          "name": "",
          "type": "address"
        }
      ],
      "stateMutability": "view",
      "type": "function"
    },
    {
      "inputs": [
        {
          "internalType": "string",
          "name": "rqt",
          "type": "string"
        },
        {
          "internalType": "string",
          "name": "_selector",
          "type": "string"
        },
        {
          "internalType": "string",
          "name": "receiveSide",
          "type": "string"
        }
      ],
      "name": "transmitRequest",
      "outputs": [
        {
          "internalType": "bytes32",
          "name": "requestId",
          "type": "bytes32"
        }
      ],
      "stateMutability": "nonpayable",
      "type": "function"
    },
    {
      "inputs": [
        {
          "internalType": "string",
          "name": "reqId",
          "type": "string"
        },
        {
          "internalType": "bytes",
          "name": "signature",
          "type": "bytes"
        },
        {
          "internalType": "bytes",
          "name": "b",
          "type": "bytes"
        },
        {
          "internalType": "bytes32",
          "name": "tx",
          "type": "bytes32"
        },
        {
          "internalType": "address",
          "name": "receiveSide",
          "type": "address"
        }
      ],
      "name": "receiveRequest",
      "outputs": [],
      "stateMutability": "nonpayable",
      "type": "function"
    },
    {
      "inputs": [
        {
          "internalType": "bytes32",
          "name": "correlationId",
          "type": "bytes32"
        },
        {
          "internalType": "bytes",
          "name": "signature",
          "type": "bytes"
        },
        {
          "internalType": "bytes32",
          "name": "tx",
          "type": "bytes32"
        },
        {
          "internalType": "bytes32",
          "name": "reqId",
          "type": "bytes32"
        }
      ],
      "name": "receiveResponse",
      "outputs": [],
      "stateMutability": "nonpayable",
      "type": "function"
    },
    {
      "inputs": [
        {
          "internalType": "bytes32",
          "name": "_requestId",
          "type": "bytes32"
        },
        {
          "internalType": "bytes32",
          "name": "_data",
          "type": "bytes32"
        }
      ],
      "name": "callback",
      "outputs": [],
      "stateMutability": "nonpayable",
      "type": "function"
    },
    {
      "inputs": [],
      "name": "withdrawLink",
      "outputs": [],
      "stateMutability": "nonpayable",
      "type": "function"
    },
    {
      "inputs": [
        {
          "internalType": "bytes32",
          "name": "_requestId",
          "type": "bytes32"
        },
        {
          "internalType": "uint256",
          "name": "_payment",
          "type": "uint256"
        },
        {
          "internalType": "bytes4",
          "name": "_callbackFunctionId",
          "type": "bytes4"
        },
        {
          "internalType": "uint256",
          "name": "_expiration",
          "type": "uint256"
        }
      ],
      "name": "cancelRequest",
      "outputs": [],
      "stateMutability": "nonpayable",
      "type": "function"
    }
  ],
  "bytecode": "0x608060405260016004553480156200001657600080fd5b506040516200229238038062002292833981810160405260408110156200003c57600080fd5b50805160209091015160006200005a6001600160e01b036200010416565b600680546001600160a01b0319166001600160a01b038316908117909155604051919250906000907f8be0079c531659141344cd1fd0a4f28419497f9722a3daafe3b4186f6b6457e0908290a350600780546001600160a01b0319166001600160a01b03838116919091179091558216620000e857620000e26001600160e01b036200010816565b620000fc565b620000fc826001600160e01b036200019916565b5050620001bb565b3390565b6200019773c89bd4e1632d3a43cb03aaad5262cbe4038bc5716001600160a01b03166338cc48316040518163ffffffff1660e01b815260040160206040518083038186803b1580156200015a57600080fd5b505afa1580156200016f573d6000803e3d6000fd5b505050506040513d60208110156200018657600080fd5b50516001600160e01b036200019916565b565b600280546001600160a01b0319166001600160a01b0392909216919091179055565b6120c780620001cb6000396000f3fe608060405234801561001057600080fd5b50600436106101005760003560e01c80637adbf973116100975780638f94bb87116100665780638f94bb871461044f578063acdc10981461060b578063ec65d0f814610663578063f2fde38b1461069c57610100565b80637adbf973146104115780637dc0d1d0146104375780638da5cb5b1461043f5780638dc654a21461044757610100565b80635ac8260c116100d35780635ac8260c146103a357806365f4916c146103c9578063715018a6146103e657806378626293146103ee57610100565b80631503aef914610105578063165d35e1146102c557806347bc6e9a146102e95780634b6022821461039b575b600080fd5b6102b36004803603606081101561011b57600080fd5b810190602081018135600160201b81111561013557600080fd5b82018360208201111561014757600080fd5b803590602001918460018302840111600160201b8311171561016857600080fd5b91908080601f0160208091040260200160405190810160405280939291908181526020018383808284376000920191909152509295949360208101935035915050600160201b8111156101ba57600080fd5b8201836020820111156101cc57600080fd5b803590602001918460018302840111600160201b831117156101ed57600080fd5b91908080601f0160208091040260200160405190810160405280939291908181526020018383808284376000920191909152509295949360208101935035915050600160201b81111561023f57600080fd5b82018360208201111561025157600080fd5b803590602001918460018302840111600160201b8311171561027257600080fd5b91908080601f0160208091040260200160405190810160405280939291908181526020018383808284376000920191909152509295506106c2945050505050565b60408051918252519081900360200190f35b6102cd61080b565b604080516001600160a01b039092168252519081900360200190f35b610399600480360360808110156102ff57600080fd5b81359190810190604081016020820135600160201b81111561032057600080fd5b82018360208201111561033257600080fd5b803590602001918460018302840111600160201b8311171561035357600080fd5b91908080601f016020809104026020016040519081016040528093929190818152602001838380828437600092019190915250929550508235935050506020013561081a565b005b6102b36109bc565b610399600480360360208110156103b957600080fd5b50356001600160a01b03166109c2565b610399600480360360208110156103df57600080fd5b5035610a3e565b610399610acb565b6103996004803603604081101561040457600080fd5b5080359060200135610b6d565b6103996004803603602081101561042757600080fd5b50356001600160a01b0316610c0c565b6102cd610c86565b6102cd610c95565b610399610ca4565b610399600480360360a081101561046557600080fd5b810190602081018135600160201b81111561047f57600080fd5b82018360208201111561049157600080fd5b803590602001918460018302840111600160201b831117156104b257600080fd5b91908080601f0160208091040260200160405190810160405280939291908181526020018383808284376000920191909152509295949360208101935035915050600160201b81111561050457600080fd5b82018360208201111561051657600080fd5b803590602001918460018302840111600160201b8311171561053757600080fd5b91908080601f0160208091040260200160405190810160405280939291908181526020018383808284376000920191909152509295949360208101935035915050600160201b81111561058957600080fd5b82018360208201111561059b57600080fd5b803590602001918460018302840111600160201b831117156105bc57600080fd5b91908080601f01602080910402602001604051908101604052809392919081815260200183838082843760009201919091525092955050823593505050602001356001600160a01b0316610e49565b610613611150565b60408051602080825283518183015283519192839290830191858101910280838360005b8381101561064f578181015183820152602001610637565b505050509050019250505060405180910390f35b6103996004803603608081101561067957600080fd5b508035906020810135906001600160e01b031960408201351690606001356111a8565b610399600480360360208110156106b257600080fd5b50356001600160a01b0316611212565b60006106cc611f4c565b6106f660086000815481106106dd57fe5b906000526020600020015430637862629360e01b61130b565b60408051808201909152600881526739b2b632b1ba37b960c11b602082015290915061072a9082908663ffffffff61133616565b60408051808201909152600c81526b726571756573745f7479706560a01b602082015261075f9082908763ffffffff61133616565b60408051808201909152600c81526b726563656976655f7369646560a01b60208201526107949082908563ffffffff61133616565b6007546107b3906001600160a01b031682670de0b6b3a7640000611365565b600081815260096020526040902080546001600160a01b031916331790556080820151519092506108039030908490670de0b6b3a7640000908390637862629360e01b9061012c9060019061153c565b509392505050565b6000610815611673565b905090565b600061085b85848460405160200180848152602001838152602001828152602001935050505060405160208183030381529060405280519060200120611682565b9050600061086982866116d3565b6001600160a01b0381166000908152600a602052604090205490915060ff1615156001146108cf576040805162461bcd60e51b815260206004820152600e60248201526d14d150d55492551648115591539560921b604482015290519081900360640190fd5b6000868152600960205260409020546001600160a01b03166109225760405162461bcd60e51b8152600401808060200182810382526021815260200180611f9c6021913960400191505060405180910390fd5b6000838152600b60205260409020805460010190819055600214156109b457600086815260096020526040808220548151630c262e5560e21b8152600481018a90526024810188905291516001600160a01b0390911692633098b954926044808201939182900301818387803b15801561099b57600080fd5b505af11580156109af573d6000803e3d6000fd5b505050505b505050505050565b61012c81565b6109ca6118b8565b6006546001600160a01b03908116911614610a1a576040805162461bcd60e51b8152602060048201819052602482015260008051602061204a833981519152604482015290519081900360640190fd5b6001600160a01b03166000908152600a60205260409020805460ff19166001179055565b610a466118b8565b6006546001600160a01b03908116911614610a96576040805162461bcd60e51b8152602060048201819052602482015260008051602061204a833981519152604482015290519081900360640190fd5b600880546001810182556000919091527ff3f7a9fe364faab93b216da50a3214154f22a0a2b415b23a84c8169e8b636ee30155565b610ad36118b8565b6006546001600160a01b03908116911614610b23576040805162461bcd60e51b8152602060048201819052602482015260008051602061204a833981519152604482015290519081900360640190fd5b6006546040516000916001600160a01b0316907f8be0079c531659141344cd1fd0a4f28419497f9722a3daafe3b4186f6b6457e0908390a3600680546001600160a01b0319169055565b60008281526005602052604090205482906001600160a01b03163314610bc45760405162461bcd60e51b815260040180806020018281038252602881526020018061206a6028913960400191505060405180910390fd5b60008181526005602052604080822080546001600160a01b03191690555182917f7cc135e0cebb02c3480ae5d74d377283180a2601f8f644edf7987b009316c63a91a2505050565b610c146118b8565b6006546001600160a01b03908116911614610c64576040805162461bcd60e51b8152602060048201819052602482015260008051602061204a833981519152604482015290519081900360640190fd5b600780546001600160a01b0319166001600160a01b0392909216919091179055565b6007546001600160a01b031681565b6006546001600160a01b031690565b610cac6118b8565b6006546001600160a01b03908116911614610cfc576040805162461bcd60e51b8152602060048201819052602482015260008051602061204a833981519152604482015290519081900360640190fd5b6000610d06611673565b604080516370a0823160e01b815230600482015290519192506001600160a01b0383169163a9059cbb91339184916370a08231916024808301926020929190829003018186803b158015610d5957600080fd5b505afa158015610d6d573d6000803e3d6000fd5b505050506040513d6020811015610d8357600080fd5b5051604080516001600160e01b031960e086901b1681526001600160a01b03909316600484015260248301919091525160448083019260209291908290030181600087803b158015610dd457600080fd5b505af1158015610de8573d6000803e3d6000fd5b505050506040513d6020811015610dfe57600080fd5b5051610e46576040805162461bcd60e51b81526020600482015260126024820152712ab730b13632903a37903a3930b739b332b960711b604482015290519081900360640190fd5b50565b6000856040516020018082805190602001908083835b60208310610e7e5780518252601f199092019160209182019101610e5f565b6001836020036101000a0380198251168184511680821785525050505050509050019150506040516020818303038152906040528051906020012090506000610f99878686866040516020018085805190602001908083835b60208310610ef65780518252601f199092019160209182019101610ed7565b51815160209384036101000a600019018019909216911617905287519190930192870191508083835b60208310610f3e5780518252601f199092019160209182019101610f1f565b51815160209384036101000a600019018019909216911617905292019485525060609290921b6bffffffffffffffffffffffff1916838301525060408051601481850301815260349093019052815191012091506116829050565b90506000610fa782886116d3565b6001600160a01b0381166000908152600a602052604090205490915060ff16151560011461100d576040805162461bcd60e51b815260206004820152600e60248201526d14d150d55492551648115591539560921b604482015290519081900360640190fd5b6000838152600b60205260409020805460010190819055600214156111465760006060856001600160a01b0316886040518082805190602001908083835b6020831061106a5780518252601f19909201916020918201910161104b565b6001836020036101000a0380198251168184511680821785525050505050509050019150506000604051808303816000865af19150503d80600081146110cc576040519150601f19603f3d011682016040523d82523d6000602084013e6110d1565b606091505b50915091508180156110ff5750805115806110ff57508080602001905160208110156110fc57600080fd5b50515b611139576040805162461bcd60e51b815260206004820152600660248201526511905253115160d21b604482015290519081900360640190fd5b6111428a6118bc565b5050505b5050505050505050565b6060600880548060200260200160405190810160405280929190818152602001828054801561119e57602002820191906000526020600020905b81548152602001906001019080831161118a575b5050505050905090565b6111b06118b8565b6006546001600160a01b03908116911614611200576040805162461bcd60e51b8152602060048201819052602482015260008051602061204a833981519152604482015290519081900360640190fd5b61120c848484846119bf565b50505050565b61121a6118b8565b6006546001600160a01b0390811691161461126a576040805162461bcd60e51b8152602060048201819052602482015260008051602061204a833981519152604482015290519081900360640190fd5b6001600160a01b0381166112af5760405162461bcd60e51b8152600401808060200182810382526026815260200180611fbd6026913960400191505060405180910390fd5b6006546040516001600160a01b038084169216907f8be0079c531659141344cd1fd0a4f28419497f9722a3daafe3b4186f6b6457e090600090a3600680546001600160a01b0319166001600160a01b0392909216919091179055565b611313611f4c565b61131b611f4c565b61132d8186868663ffffffff611a9716565b95945050505050565b608083015161134b908363ffffffff611ad416565b6080830151611360908263ffffffff611ad416565b505050565b6004546040805130606090811b60208084019190915260348084018690528451808503909101815260549093018452825192810192909220908601939093526000838152600590915281812080546001600160a01b0319166001600160a01b038816179055905182917fb5e6e01e79f91267dc17b4e6314d5d4d03593d2ceee0fbb452b750bd70ea5af991a26002546001600160a01b0316634000aea0858461140d87611af1565b6040518463ffffffff1660e01b815260040180846001600160a01b03166001600160a01b0316815260200183815260200180602001828103825283818151815260200191508051906020019080838360005b8381101561147757818101518382015260200161145f565b50505050905090810190601f1680156114a45780820380516001836020036101000a031916815260200191505b50945050505050602060405180830381600087803b1580156114c557600080fd5b505af11580156114d9573d6000803e3d6000fd5b505050506040513d60208110156114ef57600080fd5b505161152c5760405162461bcd60e51b8152600401808060200182810382526023815260200180611fe36023913960400191505060405180910390fd5b6004805460010190559392505050565b60085460015b818110156109af576008818154811061155757fe5b90600052602060002001547fd8d7ecc4800d25fa53ce0372f13a416d98907a7ef3d8d3bdd79cf4fe75529c658b8b8b8b8b8b8b8b60405180896001600160a01b03166001600160a01b03168152602001888152602001878152602001866001600160a01b03166001600160a01b03168152602001856001600160e01b0319166001600160e01b031916815260200184815260200183815260200180602001828103825283818151815260200191508051906020019080838360005b8381101561162a578181015183820152602001611612565b50505050905090810190601f1680156116575780820380516001836020036101000a031916815260200191505b50995050505050505050505060405180910390a2600101611542565b6002546001600160a01b031690565b604080517f19457468657265756d205369676e6564204d6573736167653a0a333200000000602080830191909152603c8083019490945282518083039094018452605c909101909152815191012090565b6000815160411461172b576040805162461bcd60e51b815260206004820152601f60248201527f45434453413a20696e76616c6964207369676e6174757265206c656e67746800604482015290519081900360640190fd5b60208201516040830151606084015160001a7f7fffffffffffffffffffffffffffffff5d576e7357a4501ddfe92f46681b20a082111561179c5760405162461bcd60e51b81526004018080602001828103825260228152602001806120066022913960400191505060405180910390fd5b8060ff16601b14806117b157508060ff16601c145b6117ec5760405162461bcd60e51b81526004018080602001828103825260228152602001806120286022913960400191505060405180910390fd5b60408051600080825260208083018085528a905260ff85168385015260608301879052608083018690529251909260019260a080820193601f1981019281900390910190855afa158015611844573d6000803e3d6000fd5b5050604051601f1901519150506001600160a01b0381166118ac576040805162461bcd60e51b815260206004820152601860248201527f45434453413a20696e76616c6964207369676e61747572650000000000000000604482015290519081900360640190fd5b93505050505b92915050565b3390565b60006118c6611f4c565b6118d760086000815481106106dd57fe5b90506119356040518060400160405280600c81526020016b726571756573745f7479706560a01b8152506040518060400160405280600b81526020016a736574526573706f6e736560a81b815250836113369092919063ffffffff16565b60408051808201909152600d81526c18dbdc9c995b185d1a5bdb9259609a1b602082015261196b9082908563ffffffff61133616565b60075461198a906001600160a01b031682670de0b6b3a7640000611365565b91506119b93083670de0b6b3a764000060010230637862629360e01b61012c600188608001516000015161153c565b50919050565b60008481526005602052604080822080546001600160a01b0319811690915590516001600160a01b039091169186917fe1fe3afa0f7f761ff0a8b89086790efd5140d2907ebd5b7ff6bfcb5e075fd4c59190a260408051636ee4d55360e01b815260048101879052602481018690526001600160e01b0319851660448201526064810184905290516001600160a01b03831691636ee4d55391608480830192600092919082900301818387803b158015611a7857600080fd5b505af1158015611a8c573d6000803e3d6000fd5b505050505050505050565b611a9f611f4c565b611aaf8560800151610100611c31565b50509183526001600160a01b031660208301526001600160e01b031916604082015290565b611ae18260038351611c6b565b611360828263ffffffff611d7516565b6060634042994660e01b6000808460000151856020015186604001518760600151600189608001516000015160405160240180896001600160a01b03166001600160a01b03168152602001888152602001878152602001866001600160a01b03166001600160a01b03168152602001856001600160e01b0319166001600160e01b031916815260200184815260200183815260200180602001828103825283818151815260200191508051906020019080838360005b83811015611bbf578181015183820152602001611ba7565b50505050905090810190601f168015611bec5780820380516001836020036101000a031916815260200191505b5060408051601f198184030181529190526020810180516001600160e01b03166001600160e01b0319909d169c909c17909b5250989950505050505050505050919050565b611c39611f81565b6020820615611c4e5760208206602003820191505b506020828101829052604080518085526000815290920101905290565b60178111611c9257611c8c8360e0600585901b16831763ffffffff611d9616565b50611360565b60ff8111611cc857611cb5836018611fe0600586901b161763ffffffff611d9616565b50611c8c8382600163ffffffff611dae16565b61ffff8111611cff57611cec836019611fe0600586901b161763ffffffff611d9616565b50611c8c8382600263ffffffff611dae16565b63ffffffff8111611d3857611d2583601a611fe0600586901b161763ffffffff611d9616565b50611c8c8382600463ffffffff611dae16565b67ffffffffffffffff811161136057611d6283601b611fe0600586901b161763ffffffff611d9616565b5061120c8382600863ffffffff611dae16565b611d7d611f81565b611d8f83846000015151848551611dcf565b9392505050565b611d9e611f81565b611d8f8384600001515184611e7b565b611db6611f81565b611dc7848560000151518585611ec6565b949350505050565b611dd7611f81565b8251821115611de557600080fd5b84602001518285011115611e0f57611e0f85611e078760200151878601611f24565b600202611f35565b600080865180518760208301019350808887011115611e2e5787860182525b505050602084015b60208410611e555780518252601f199093019260209182019101611e36565b51815160001960208690036101000a019081169019919091161790525083949350505050565b611e83611f81565b83602001518310611e9f57611e9f848560200151600202611f35565b835180516020858301018481535080851415611ebc576001810182525b5093949350505050565b611ece611f81565b84602001518483011115611eeb57611eeb85858401600202611f35565b60006001836101000a039050855183868201018583198251161781525080518487011115611f195783860181525b509495945050505050565b6000818311156119b95750816118b2565b8151611f418383611c31565b5061120c8382611d75565b6040805160a081018252600080825260208201819052918101829052606081019190915260808101611f7c611f81565b905290565b60405180604001604052806060815260200160008152509056fe5345435552495459204556454e543a2042414420434f5252454c4154494f4e49444f776e61626c653a206e6577206f776e657220697320746865207a65726f2061646472657373756e61626c6520746f207472616e73666572416e6443616c6c20746f206f7261636c6545434453413a20696e76616c6964207369676e6174757265202773272076616c756545434453413a20696e76616c6964207369676e6174757265202776272076616c75654f776e61626c653a2063616c6c6572206973206e6f7420746865206f776e6572536f75726365206d75737420626520746865206f7261636c65206f66207468652072657175657374a2646970667358221220026f8f7741599bae4fc14020d681aec336e65a0779be4cd761cb0bed6627646364736f6c63430006090033",
  "immutableReferences": {},
  "source": "pragma solidity >=0.4.21 < 0.7.0;\n\nimport \"@openzeppelin/contracts/cryptography/ECDSA.sol\";\nimport \"@chainlink/contracts/src/v0.6/ChainlinkClient.sol\";\nimport \"@openzeppelin/contracts/access/Ownable.sol\";\nimport \"@openzeppelin/contracts/token/ERC20/IERC20.sol\";\nimport \"./DexPool.sol\";\n\n\n\n\ncontract MyContract is ChainlinkClient, Ownable {\n  \n  //TODO      1 .  \n  uint256 constant private ORACLE_PAYMENT =  1 * LINK;//0.1 * 10 ** 18; // 0.1 LINK    \n  address public oracle;\n\n  bytes32[] private specIdListPermission;\n  uint256 constant public EXPIRY_TIME   = 5 minutes;\n  uint256 constant private ARGS_VERSION = 1;\n\n  event OracleRequest(\n    bytes32 indexed specId,\n    address requester,\n    bytes32 requestId,\n    uint256 payment,\n    address callbackAddr,\n    bytes4 callbackFunctionId,\n    uint256 cancelExpiration,\n    uint256 dataVersion,\n    bytes data\n  );\n  \n\n  // requestId => recipient\n  mapping(bytes32 => address) private routeForCallback;\n  mapping(address => bool)    private whiteList;\n  mapping(bytes32 => uint256) private agregator;\n  \n  /**\n   * @notice Deploy the contract with a specified address for the LINK\n   * and Oracle contract addresses\n   * @dev Sets the storage for the specified addresses\n   * @param _link The address of the LINK token contract\n   */\n  constructor(address _link, address _oracle) public {\n\n    oracle      = _oracle;\n\n    if (_link == address(0)) {\n      setPublicChainlinkToken();\n    } else {\n      setChainlinkToken(_link);\n    }\n  }\n\n  function setPermissionJobId(bytes32 jobId)\n    external\n    onlyOwner\n  {\n    specIdListPermission.push(jobId);\n  }\n\n  function setControl(address a) external onlyOwner {\n    whiteList[a] = true;\n  }\n\n  function getPermissionJobId() external view returns(bytes32[] memory){\n    return specIdListPermission;\n  }\n  function setOracle(address val) external onlyOwner {\n    oracle = val;\n  }\n\n\n\n  /**\n   * @notice Returns the address of the LINK token\n   * @dev This is the public implementation for chainlinkTokenAddress, which is\n   * an internal method of the ChainlinkClient contract\n   */\n  function getChainlinkToken() public view returns (address) {\n    return chainlinkTokenAddress();\n  }\n\n  /**\n    Create request from 1 -> 2 (another side)\n  */\n  function transmitRequest(string memory rqt, string memory  _selector, string memory  receiveSide)\n    public\n    /*onlyOwner*/\n    returns (bytes32 requestId)\n  {\n\n    //require(msg.sender == myContract, \"ONLY PERMISSIONED ADDRESS\");\n\n    Chainlink.Request memory req = buildChainlinkRequest(specIdListPermission[0], address(this), this.callback.selector);\n    req.add(\"selector\", _selector);\n    req.add(\"request_type\", rqt);\n    req.add(\"receive_side\", receiveSide);\n    \n    requestId = sendChainlinkRequestTo(oracle, req, ORACLE_PAYMENT);\n    routeForCallback[requestId] = msg.sender;\n\n    emitBroadcast(address(this),\n                  requestId,\n                  ORACLE_PAYMENT,\n                  address(this),\n                  this.callback.selector,\n                  EXPIRY_TIME,\n                  ARGS_VERSION,\n                  req.buf.buf);\n  }\n\n  /**\n    Create response on request from 2 -> 1 (initiator side)\n  */\n  function transmitResponse(string memory correlationId) private returns (bytes32 requestId){\n\n    Chainlink.Request memory req = buildChainlinkRequest(specIdListPermission[0], address(this), this.callback.selector);\n    req.add(\"request_type\", \"setResponse\");\n    req.add(\"correlationId\", correlationId);\n    \n\n    requestId = sendChainlinkRequestTo(oracle, req, ORACLE_PAYMENT);\n\n    emitBroadcast(address(this),\n                  requestId,\n                  ORACLE_PAYMENT,\n                  address(this),\n                  this.callback.selector,\n                  EXPIRY_TIME,\n                  ARGS_VERSION,\n                  req.buf.buf);\n  \n  }\n  /**\n  * Receive invoke from other network through external adapter\n  * Change state smart-contrat\n  *\n  */\n  // WARN whitelist must be includes ID of first side && msg.sender it's address adapter => adr control -> adr adapter -> id otherside\n  // TODO to do msg.sender  under sign\n  function receiveRequest(string memory reqId,\n                          bytes memory signature,\n                          bytes memory b,\n                          bytes32 tx,\n                          address receiveSide) external {\n\n    bytes32 hreqId   = keccak256(abi.encodePacked(reqId));\n    bytes32 hash     = ECDSA.toEthSignedMessageHash(keccak256(abi.encodePacked(reqId, b, tx, receiveSide)));\n    address res      = ECDSA.recover(hash, signature);\n    require(true == whiteList[res], 'SECURITY EVENT');\n    // require receiveSide != 0 || ....\n    \n    agregator[hreqId] = agregator[hreqId] + 1;\n    // HARD code: temporary equals 2\n    if(agregator[hreqId] == 2 /* && NONCE === hash(local nonce, adr mycont_1) && ALL hashs == */){\n      (bool success, bytes memory data) = receiveSide.call(b);\n      require(success && (data.length == 0 || abi.decode(data, (bool))), 'FAILED');\n      \n      transmitResponse(reqId);\n    }\n  }\n  /** Receive response from other side.\n    precondition:\n      bridgepart_1#transmitRequest -> bridgepart_2#receiveRequest -> bridgepart_2#transmitResponse -> bridgepart_1#receiveResponse\n  */\n  function receiveResponse(bytes32 correlationId, bytes memory signature, bytes32 tx, bytes32 reqId) external /*onlyOwner*/ {\n\n    bytes32 hash     = ECDSA.toEthSignedMessageHash(keccak256(abi.encodePacked(correlationId, tx, reqId)));\n    address res      = ECDSA.recover(hash, signature);\n    require(true == whiteList[res], 'SECURITY EVENT');\n    require(address(0) != routeForCallback[correlationId], 'SECURITY EVENT: BAD CORRELATIONID');\n\n    agregator[reqId] = agregator[reqId] + 1;\n    // HARD code: temporary equals 2\n    if(agregator[reqId] == 2 /* && NONCE === hash(local nonce, adr mycont_1) && ALL hashs == */){\n      DexPool(routeForCallback[correlationId]).setPendingRequestsDone(correlationId, tx);\n    }\n\n\n    \n  }\n\n  /**\n   * @notice The callback method from requests created by transmit\n   * @dev The recordChainlinkFulfillment protects this function from being called\n   * by anyone other than the oracle address that the request was sent to\n   * @param _requestId The ID that was generated for the request\n   * @param _data The answer provided by the oracle. In this case tx.\n   */\n  function callback(bytes32 _requestId, bytes32 _data)\n    public\n    recordChainlinkFulfillment(_requestId)\n  {\n    \n    //DexPool(routeForCallback[_requestId]).setPendingRequestsDone(_requestId, _data);\n  }\n\n  /**\n   * @notice Allows the owner to withdraw any LINK balance on the contract\n   */\n  function withdrawLink() public onlyOwner {\n    LinkTokenInterface link = LinkTokenInterface(chainlinkTokenAddress());\n    require(link.transfer(msg.sender, link.balanceOf(address(this))), \"Unable to transfer\");\n  }\n\n  /**\n   * @notice Call this method if no response is received within 5 minutes\n   * @param _requestId The ID that was generated for the request to cancel\n   * @param _payment The payment specified for the request to cancel\n   * @param _callbackFunctionId The bytes4 callback function ID specified for\n   * the request to cancel\n   * @param _expiration The expiration generated for the request to cancel\n   */\n  function cancelRequest(\n    bytes32 _requestId,\n    uint256 _payment,\n    bytes4 _callbackFunctionId,\n    uint256 _expiration\n  )\n    public\n    onlyOwner\n  {\n    cancelChainlinkRequest(_requestId, _payment, _callbackFunctionId, _expiration);\n  }\n\n  function emitBroadcast(\n    address _sender,\n    bytes32 requestId,\n    uint256 _payment,\n    address _callbackAddress,\n    bytes4 _callbackFunctionId,\n    uint256 expiration,\n    uint256 _dataVersion,\n    bytes memory _data\n  ) private {\n\n      uint256 len = specIdListPermission.length;\n      for(uint256 y = 1; y < len; y++){\n        emit OracleRequest(\n          specIdListPermission[y],\n          _sender,\n          requestId,\n          _payment,\n          _callbackAddress,\n          _callbackFunctionId,\n          expiration,\n          _dataVersion,\n          _data);\n      }\n  }\n}\n",
  "sourcePath": "/home/syi/src/Digiu.Lab/contracts/MyContract.sol",
  "compiler": {
    "name": "solc",
    "version": "0.6.9+commit.3e3065ac.Linux.g++"
  },
  "schemaVersion": "3.3.3",
  "updatedAt": "2021-03-15T19:22:28.386Z",
  "devdoc": {
    "methods": {
      "callback(bytes32,bytes32)": {
        "details": "The recordChainlinkFulfillment protects this function from being called by anyone other than the oracle address that the request was sent to",
        "params": {
          "_data": "The answer provided by the oracle. In this case tx.",
          "_requestId": "The ID that was generated for the request"
        }
      },
      "cancelRequest(bytes32,uint256,bytes4,uint256)": {
        "params": {
          "_callbackFunctionId": "The bytes4 callback function ID specified for the request to cancel",
          "_expiration": "The expiration generated for the request to cancel",
          "_payment": "The payment specified for the request to cancel",
          "_requestId": "The ID that was generated for the request to cancel"
        }
      },
      "constructor": {
        "details": "Sets the storage for the specified addresses",
        "params": {
          "_link": "The address of the LINK token contract"
        }
      },
      "getChainlinkToken()": {
        "details": "This is the public implementation for chainlinkTokenAddress, which is an internal method of the ChainlinkClient contract"
      },
      "owner()": {
        "details": "Returns the address of the current owner."
      },
      "renounceOwnership()": {
        "details": "Leaves the contract without owner. It will not be possible to call `onlyOwner` functions anymore. Can only be called by the current owner. NOTE: Renouncing ownership will leave the contract without an owner, thereby removing any functionality that is only available to the owner."
      },
      "transferOwnership(address)": {
        "details": "Transfers ownership of the contract to a new account (`newOwner`). Can only be called by the current owner."
      }
    }
  },
  "userdoc": {
    "methods": {
      "callback(bytes32,bytes32)": {
        "notice": "The callback method from requests created by transmit"
      },
      "cancelRequest(bytes32,uint256,bytes4,uint256)": {
        "notice": "Call this method if no response is received within 5 minutes"
      },
      "constructor": "Deploy the contract with a specified address for the LINK and Oracle contract addresses",
      "getChainlinkToken()": {
        "notice": "Returns the address of the LINK token"
      },
      "receiveRequest(string,bytes,bytes,bytes32,address)": {
        "notice": "Receive invoke from other network through external adapter Change state smart-contrat"
      },
      "receiveResponse(bytes32,bytes,bytes32,bytes32)": {
        "notice": "Receive response from other side. precondition: bridgepart_1#transmitRequest -> bridgepart_2#receiveRequest -> bridgepart_2#transmitResponse -> bridgepart_1#receiveResponse"
      },
      "transmitRequest(string,string,string)": {
        "notice": "Create request from 1 -> 2 (another side)"
      },
      "withdrawLink()": {
        "notice": "Allows the owner to withdraw any LINK balance on the contract"
      }
    }
  }
}